8=FIX.4.2|9=116|35=A|34=1|49=FIXTest116|52=20151210-09:36:09.408|56=SERVER|96=T:110000000572,110050000572:135790:|98=0|108=60|141=Y|10=014|
8=FIX.4.2|9=77|35=A|34=1|49=SERVER|52=20151210-09:35:23.593|56=FIXTest116|98=0|108=60|141=Y|10=043|
8=FIX.4.2|9=146|35=D|34=2|49=FIXTest116|52=20151210-09:36:17.088|56=SERVER|11=151210173617-0|15=CNY|21=1|38=100|40=1|54=1|55=511880|60=20151210-09:36:17|207=XSHG|10=182|
8=FIX.4.2|9=146|35=D|34=3|49=FIXTest116|52=20151210-09:36:17.154|56=SERVER|11=151210173617-1|15=CNY|21=1|38=100|40=1|54=1|55=511990|60=20151210-09:36:17|207=XSHG|10=180|
8=FIX.4.2|9=159|35=8|34=2|49=SERVER|52=20151210-09:35:31.234|56=FIXTest116|6=0|11=151210173617-0|14=0|17=611484152|20=0|37=0010323476|38=100|39=A|54=1|55=511880|150=A|151=100|10=024|
8=FIX.4.2|9=164|35=8|34=3|49=SERVER|52=20151210-09:35:31.234|56=FIXTest116|6=0|11=151210173617-0|14=0|17=611484153|20=0|32=0|37=0010323476|38=100|39=0|54=1|55=511880|150=0|151=100|10=199|
8=FIX.4.2|9=159|35=8|34=4|49=SERVER|52=20151210-09:35:31.328|56=FIXTest116|6=0|11=151210173617-1|14=0|17=611484154|20=0|37=0010323477|38=100|39=A|54=1|55=511990|150=A|151=100|10=036|
8=FIX.4.2|9=164|35=8|34=5|49=SERVER|52=20151210-09:35:31.328|56=FIXTest116|6=0|11=151210173617-1|14=0|17=611484155|20=0|32=0|37=0010323477|38=100|39=0|54=1|55=511990|150=0|151=100|10=211|
8=FIX.4.2|9=183|35=8|34=6|49=SERVER|52=20151210-09:35:31.562|56=FIXTest116|6=103.277|11=151210173617-0|14=100|17=611484156|20=0|31=103.277|32=100|37=0010323476|38=100|39=2|54=1|55=511880|150=2|151=0|10=109|
8=FIX.4.2|9=181|35=8|34=7|49=SERVER|52=20151210-09:35:31.562|56=FIXTest116|6=99.999|11=151210173617-1|14=100|17=611484157|20=0|31=99.999|32=100|37=0010323477|38=100|39=2|54=1|55=511990|150=2|151=0|10=067|
8=FIX.4.2|9=59|35=5|34=4|49=FIXTest116|52=20151210-09:36:28.118|56=SERVER|10=216|
8=FIX.4.2|9=59|35=5|34=8|49=SERVER|52=20151210-09:35:42.187|56=FIXTest116|10=221|
8=FIX.4.2|9=59|35=5|34=5|49=FIXTest116|52=20151210-09:36:28.217|56=SERVER|10=217|
8=FIX.4.2|9=116|35=A|34=1|49=FIXTest116|52=20151210-09:51:41.979|56=SERVER|96=T:110000000572,110050000572:135790:|98=0|108=60|141=Y|10=020|
8=FIX.4.2|9=77|35=A|34=1|49=SERVER|52=20151210-09:50:56.171|56=FIXTest116|98=0|108=60|141=Y|10=038|
8=FIX.4.2|9=146|35=D|34=2|49=FIXTest116|52=20151210-09:51:51.123|56=SERVER|11=151210175151-0|15=CNY|21=1|38=100|40=1|54=1|55=511880|60=20151210-09:51:51|207=XSHG|10=157|
8=FIX.4.2|9=159|35=8|34=2|49=SERVER|52=20151210-09:51:05.218|56=FIXTest116|6=0|11=151210175151-0|14=0|17=611484158|20=0|37=0010323478|38=100|39=A|54=1|55=511880|150=A|151=100|10=028|
8=FIX.4.2|9=146|35=D|34=3|49=FIXTest116|52=20151210-09:51:51.274|56=SERVER|11=151210175151-1|15=CNY|21=1|38=100|40=1|54=1|55=511990|60=20151210-09:51:51|207=XSHG|10=168|
8=FIX.4.2|9=164|35=8|34=3|49=SERVER|52=20151210-09:51:05.218|56=FIXTest116|6=0|11=151210175151-0|14=0|17=611484159|20=0|32=0|37=0010323478|38=100|39=0|54=1|55=511880|150=0|151=100|10=203|
8=FIX.4.2|9=159|35=8|34=4|49=SERVER|52=20151210-09:51:05.359|56=FIXTest116|6=0|11=151210175151-1|14=0|17=611484160|20=0|37=0010323479|38=100|39=A|54=1|55=511990|150=A|151=100|10=033|
8=FIX.4.2|9=164|35=8|34=5|49=SERVER|52=20151210-09:51:05.359|56=FIXTest116|6=0|11=151210175151-1|14=0|17=611484161|20=0|32=0|37=0010323479|38=100|39=0|54=1|55=511990|150=0|151=100|10=208|
8=FIX.4.2|9=183|35=8|34=6|49=SERVER|52=20151210-09:51:05.421|56=FIXTest116|6=103.277|11=151210175151-0|14=100|17=611484162|20=0|31=103.277|32=100|37=0010323478|38=100|39=2|54=1|55=511880|150=2|151=0|10=096|
8=FIX.4.2|9=181|35=8|34=7|49=SERVER|52=20151210-09:51:05.640|56=FIXTest116|6=99.999|11=151210175151-1|14=100|17=611484163|20=0|31=99.999|32=100|37=0010323479|38=100|39=2|54=1|55=511990|150=2|151=0|10=057|
8=FIX.4.2|9=59|35=5|34=4|49=FIXTest116|52=20151210-09:51:55.439|56=SERVER|10=219|
8=FIX.4.2|9=59|35=5|34=8|49=SERVER|52=20151210-09:51:09.500|56=FIXTest116|10=211|
8=FIX.4.2|9=59|35=5|34=5|49=FIXTest116|52=20151210-09:51:55.553|56=SERVER|10=217|
8=FIX.4.2|9=116|35=A|34=1|49=FIXTest116|52=20151211-00:47:37.763|56=SERVER|96=T:110000000572,110050000572:135790:|98=0|108=60|141=Y|10=013|
8=FIX.4.2|9=77|35=A|34=1|49=SERVER|52=20151211-00:46:51.312|56=FIXTest116|98=0|108=60|141=Y|10=027|
8=FIX.4.2|9=146|35=D|34=2|49=FIXTest116|52=20151211-00:47:46.754|56=SERVER|11=151211084746-0|15=CNY|21=1|38=100|40=1|54=2|55=000006|60=20151211-00:47:46|207=XSHE|10=161|
8=FIX.4.2|9=146|35=D|34=3|49=FIXTest116|52=20151211-00:47:46.825|56=SERVER|11=151211084746-1|15=CNY|21=1|38=100|40=1|54=2|55=000021|60=20151211-00:47:46|207=XSHE|10=159|
8=FIX.4.2|9=267|35=8|34=2|49=SERVER|52=20151211-00:47:00.250|56=FIXTest116|6=0|11=151211084746-0|14=0|17=611484191|20=0|37=151211084746-0|38=100|39=8|54=2|55=000006|58=error_business: Broker return: Code:-420411065 Msg:-420411065[-150906135]股份可用数不足,尚需100|103=99|150=8|151=0|10=027|
8=FIX.4.2|9=146|35=D|34=4|49=FIXTest116|52=20151211-00:47:46.884|56=SERVER|11=151211084746-2|15=CNY|21=1|38=200|40=1|54=2|55=000030|60=20151211-00:47:46|207=XSHE|10=167|
8=FIX.4.2|9=267|35=8|34=3|49=SERVER|52=20151211-00:47:00.328|56=FIXTest116|6=0|11=151211084746-1|14=0|17=611484192|20=0|37=151211084746-1|38=100|39=8|54=2|55=000021|58=error_business: Broker return: Code:-420411065 Msg:-420411065[-150906135]股份可用数不足,尚需100|103=99|150=8|151=0|10=034|
8=FIX.4.2|9=146|35=D|34=5|49=FIXTest116|52=20151211-00:47:47.062|56=SERVER|11=151211084746-3|15=CNY|21=1|38=100|40=1|54=2|55=000031|60=20151211-00:47:46|207=XSHE|10=158|
8=FIX.4.2|9=146|35=D|34=6|49=FIXTest116|52=20151211-00:47:47.104|56=SERVER|11=151211084747-4|15=CNY|21=1|38=100|40=1|54=2|55=000062|60=20151211-00:47:47|207=XSHE|10=163|
8=FIX.4.2|9=146|35=D|34=7|49=FIXTest116|52=20151211-00:47:47.247|56=SERVER|11=151211084747-5|15=CNY|21=1|38=100|40=1|54=2|55=000088|60=20151211-00:47:47|207=XSHE|10=181|
8=FIX.4.2|9=146|35=D|34=8|49=FIXTest116|52=20151211-00:47:47.318|56=SERVER|11=151211084747-6|15=CNY|21=1|38=100|40=1|54=1|55=000090|60=20151211-00:47:47|207=XSHE|10=174|
8=FIX.4.2|9=146|35=D|34=9|49=FIXTest116|52=20151211-00:47:47.493|56=SERVER|11=151211084747-7|15=CNY|21=1|38=100|40=1|54=1|55=000099|60=20151211-00:47:47|207=XSHE|10=189|
8=FIX.4.2|9=147|35=D|34=10|49=FIXTest116|52=20151211-00:47:47.499|56=SERVER|11=151211084747-8|15=CNY|21=1|38=200|40=1|54=2|55=000401|60=20151211-00:47:47|207=XSHE|10=226|
8=FIX.4.2|9=147|35=D|34=11|49=FIXTest116|52=20151211-00:47:47.605|56=SERVER|11=151211084747-9|15=CNY|21=1|38=100|40=1|54=2|55=000415|60=20151211-00:47:47|207=XSHE|10=221|
8=FIX.4.2|9=148|35=D|34=12|49=FIXTest116|52=20151211-00:47:47.699|56=SERVER|11=151211084747-10|15=CNY|21=1|38=200|40=1|54=2|55=000417|60=20151211-00:47:47|207=XSHE|10=023|
8=FIX.4.2|9=148|35=D|34=13|49=FIXTest116|52=20151211-00:47:47.808|56=SERVER|11=151211084747-11|15=CNY|21=1|38=100|40=1|54=2|55=000418|60=20151211-00:47:47|207=XSHE|10=017|
8=FIX.4.2|9=267|35=8|34=4|49=SERVER|52=20151211-00:47:01.234|56=FIXTest116|6=0|11=151211084746-3|14=0|17=611484193|20=0|37=151211084746-3|38=100|39=8|54=2|55=000031|58=error_business: Broker return: Code:-420411065 Msg:-420411065[-150906135]股份可用数不足,尚需100|103=99|150=8|151=0|10=038|
8=FIX.4.2|9=157|35=8|34=5|49=SERVER|52=20151211-00:47:01.234|56=FIXTest116|6=0|11=151211084746-2|14=0|17=611484194|20=0|37=G1174857|38=200|39=A|54=2|55=000030|150=A|151=200|10=203|
8=FIX.4.2|9=148|35=D|34=14|49=FIXTest116|52=20151211-00:47:47.933|56=SERVER|11=151211084747-12|15=CNY|21=1|38=100|40=1|54=2|55=000422|60=20151211-00:47:47|207=XSHE|10=013|
8=FIX.4.2|9=162|35=8|34=6|49=SERVER|52=20151211-00:47:01.234|56=FIXTest116|6=0|11=151211084746-2|14=0|17=611484195|20=0|32=0|37=G1174857|38=200|39=0|54=2|55=000030|150=0|151=200|10=122|
8=FIX.4.2|9=267|35=8|34=7|49=SERVER|52=20151211-00:47:01.265|56=FIXTest116|6=0|11=151211084747-4|14=0|17=611484196|20=0|37=151211084747-4|38=100|39=8|54=2|55=000062|58=error_business: Broker return: Code:-420411065 Msg:-420411065[-150906135]股份可用数不足,尚需100|103=99|150=8|151=0|10=056|
8=FIX.4.2|9=148|35=D|34=15|49=FIXTest116|52=20151211-00:47:48.044|56=SERVER|11=151211084748-13|15=CNY|21=1|38=100|40=1|54=2|55=000488|60=20151211-00:47:48|207=XSHE|10=023|
8=FIX.4.2|9=148|35=D|34=16|49=FIXTest116|52=20151211-00:47:48.143|56=SERVER|11=151211084748-14|15=CNY|21=1|38=100|40=1|54=2|55=000501|60=20151211-00:47:48|207=XSHE|10=011|
8=FIX.4.2|9=169|35=8|34=8|49=SERVER|52=20151211-00:47:01.531|56=FIXTest116|6=0|11=151211084746-2|14=200|17=611484197|20=0|31=0|32=200|37=G1174857|38=200|39=2|54=2|55=000030|150=2|151=0|10=189|
8=FIX.4.2|9=148|35=D|34=17|49=FIXTest116|52=20151211-00:47:48.245|56=SERVER|11=151211084748-15|15=CNY|21=1|38=100|40=1|54=2|55=000525|60=20151211-00:47:48|207=XSHE|10=022|
8=FIX.4.2|9=148|35=D|34=18|49=FIXTest116|52=20151211-00:47:48.346|56=SERVER|11=151211084748-16|15=CNY|21=1|38=100|40=1|54=2|55=000528|60=20151211-00:47:48|207=XSHE|10=029|
8=FIX.4.2|9=148|35=D|34=19|49=FIXTest116|52=20151211-00:47:48.446|56=SERVER|11=151211084748-17|15=CNY|21=1|38=100|40=1|54=2|55=000540|60=20151211-00:47:48|207=XSHE|10=026|
8=FIX.4.2|9=148|35=D|34=20|49=FIXTest116|52=20151211-00:47:48.551|56=SERVER|11=151211084748-18|15=CNY|21=1|38=200|40=1|54=2|55=000543|60=20151211-00:47:48|207=XSHE|10=020|
8=FIX.4.2|9=148|35=D|34=21|49=FIXTest116|52=20151211-00:47:48.649|56=SERVER|11=151211084748-19|15=CNY|21=1|38=100|40=1|54=2|55=000550|60=20151211-00:47:48|207=XSHE|10=027|
8=FIX.4.2|9=148|35=D|34=22|49=FIXTest116|52=20151211-00:47:48.750|56=SERVER|11=151211084748-20|15=CNY|21=1|38=100|40=1|54=2|55=000552|60=20151211-00:47:48|207=XSHE|10=015|
8=FIX.4.2|9=157|35=8|34=9|49=SERVER|52=20151211-00:47:02.250|56=FIXTest116|6=0|11=151211084747-5|14=0|17=611484198|20=0|37=G1174858|38=100|39=A|54=2|55=000088|150=A|151=100|10=226|
8=FIX.4.2|9=148|35=D|34=23|49=FIXTest116|52=20151211-00:47:48.957|56=SERVER|11=151211084748-21|15=CNY|21=1|38=100|40=1|54=1|55=000563|60=20151211-00:47:48|207=XSHE|10=027|
8=FIX.4.2|9=158|35=8|34=10|49=SERVER|52=20151211-00:47:02.250|56=FIXTest116|6=0|11=151211084747-6|14=0|17=611484199|20=0|37=G1174859|38=100|39=A|54=1|55=000090|150=A|151=100|10=006|
8=FIX.4.2|9=148|35=D|34=24|49=FIXTest116|52=20151211-00:47:48.978|56=SERVER|11=151211084748-22|15=CNY|21=1|38=200|40=1|54=2|55=000572|60=20151211-00:47:48|207=XSHE|10=034|
8=FIX.4.2|9=163|35=8|34=11|49=SERVER|52=20151211-00:47:02.250|56=FIXTest116|6=0|11=151211084747-5|14=0|17=611484200|20=0|32=0|37=G1174858|38=100|39=0|54=2|55=000088|150=0|151=100|10=169|
8=FIX.4.2|9=163|35=8|34=12|49=SERVER|52=20151211-00:47:02.250|56=FIXTest116|6=0|11=151211084747-6|14=0|17=611484201|20=0|32=0|37=G1174859|38=100|39=0|54=1|55=000090|150=0|151=100|10=165|
8=FIX.4.2|9=158|35=8|34=13|49=SERVER|52=20151211-00:47:02.281|56=FIXTest116|6=0|11=151211084747-7|14=0|17=611484202|20=0|37=G1174860|38=100|39=A|54=1|55=000099|150=A|151=100|10=000|
8=FIX.4.2|9=163|35=8|34=14|49=SERVER|52=20151211-00:47:02.281|56=FIXTest116|6=0|11=151211084747-7|14=0|17=611484203|20=0|32=0|37=G1174860|38=100|39=0|54=1|55=000099|150=0|151=100|10=175|
8=FIX.4.2|9=170|35=8|34=15|49=SERVER|52=20151211-00:47:02.406|56=FIXTest116|6=0|11=151211084747-5|14=100|17=611484204|20=0|31=0|32=100|37=G1174858|38=100|39=2|54=2|55=000088|150=2|151=0|10=233|
8=FIX.4.2|9=170|35=8|34=16|49=SERVER|52=20151211-00:47:02.406|56=FIXTest116|6=0|11=151211084747-6|14=100|17=611484205|20=0|31=0|32=100|37=G1174859|38=100|39=2|54=1|55=000090|150=2|151=0|10=229|
8=FIX.4.2|9=170|35=8|34=17|49=SERVER|52=20151211-00:47:02.421|56=FIXTest116|6=0|11=151211084747-7|14=100|17=611484206|20=0|31=0|32=100|37=G1174860|38=100|39=2|54=1|55=000099|150=2|151=0|10=230|
8=FIX.4.2|9=148|35=D|34=25|49=FIXTest116|52=20151211-00:47:49.166|56=SERVER|11=151211084749-23|15=CNY|21=1|38=100|40=1|54=1|55=000587|60=20151211-00:47:49|207=XSHE|10=032|
8=FIX.4.2|9=148|35=D|34=26|49=FIXTest116|52=20151211-00:47:49.177|56=SERVER|11=151211084749-24|15=CNY|21=1|38=200|40=1|54=2|55=000600|60=20151211-00:47:49|207=XSHE|10=024|
8=FIX.4.2|9=148|35=D|34=27|49=FIXTest116|52=20151211-00:47:49.386|56=SERVER|11=151211084749-25|15=CNY|21=1|38=200|40=1|54=1|55=000616|60=20151211-00:47:49|207=XSHE|10=034|
8=FIX.4.2|9=148|35=D|34=28|49=FIXTest116|52=20151211-00:47:49.399|56=SERVER|11=151211084749-26|15=CNY|21=1|38=200|40=1|54=2|55=000620|60=20151211-00:47:49|207=XSHE|10=036|
8=FIX.4.2|9=148|35=D|34=29|49=FIXTest116|52=20151211-00:47:49.619|56=SERVER|11=151211084749-27|15=CNY|21=1|38=100|40=1|54=1|55=000650|60=20151211-00:47:49|207=XSHE|10=034|
8=FIX.4.2|9=148|35=D|34=30|49=FIXTest116|52=20151211-00:47:49.679|56=SERVER|11=151211084749-28|15=CNY|21=1|38=100|40=1|54=1|55=000652|60=20151211-00:47:49|207=XSHE|10=035|
8=FIX.4.2|9=148|35=D|34=31|49=FIXTest116|52=20151211-00:47:49.718|56=SERVER|11=151211084749-29|15=CNY|21=1|38=100|40=1|54=2|55=000656|60=20151211-00:47:49|207=XSHE|10=036|
8=FIX.4.2|9=148|35=D|34=32|49=FIXTest116|52=20151211-00:47:49.830|56=SERVER|11=151211084749-30|15=CNY|21=1|38=200|40=1|54=2|55=000667|60=20151211-00:47:49|207=XSHE|10=027|
8=FIX.4.2|9=268|35=8|34=18|49=SERVER|52=20151211-00:47:03.234|56=FIXTest116|6=0|11=151211084747-8|14=0|17=611484207|20=0|37=151211084747-8|38=200|39=8|54=2|55=000401|58=error_business: Broker return: Code:-420411065 Msg:-420411065[-150906135]股份可用数不足,尚需200|103=99|150=8|151=0|10=105|
8=FIX.4.2|9=268|35=8|34=19|49=SERVER|52=20151211-00:47:03.234|56=FIXTest116|6=0|11=151211084747-9|14=0|17=611484208|20=0|37=151211084747-9|38=100|39=8|54=2|55=000415|58=error_business: Broker return: Code:-420411065 Msg:-420411065[-150906135]股份可用数不足,尚需100|103=99|150=8|151=0|10=112|
8=FIX.4.2|9=159|35=8|34=20|49=SERVER|52=20151211-00:47:03.281|56=FIXTest116|6=0|11=151211084747-10|14=0|17=611484209|20=0|37=G1174861|38=200|39=A|54=2|55=000417|150=A|151=200|10=047|
8=FIX.4.2|9=148|35=D|34=33|49=FIXTest116|52=20151211-00:47:49.962|56=SERVER|11=151211084749-31|15=CNY|21=1|38=100|40=1|54=2|55=000680|60=20151211-00:47:49|207=XSHE|10=029|
8=FIX.4.2|9=164|35=8|34=21|49=SERVER|52=20151211-00:47:03.281|56=FIXTest116|6=0|11=151211084747-10|14=0|17=611484210|20=0|32=0|37=G1174861|38=200|39=0|54=2|55=000417|150=0|151=200|10=213|
8=FIX.4.2|9=148|35=D|34=34|49=FIXTest116|52=20151211-00:47:50.060|56=SERVER|11=151211084750-32|15=CNY|21=1|38=100|40=1|54=2|55=000681|60=20151211-00:47:50|207=XSHE|10=253|
8=FIX.4.2|9=171|35=8|34=22|49=SERVER|52=20151211-00:47:03.515|56=FIXTest116|6=0|11=151211084747-10|14=200|17=611484211|20=0|31=0|32=200|37=G1174861|38=200|39=2|54=2|55=000417|150=2|151=0|10=013|
8=FIX.4.2|9=148|35=D|34=35|49=FIXTest116|52=20151211-00:47:50.240|56=SERVER|11=151211084750-33|15=CNY|21=1|38=100|40=1|54=1|55=000688|60=20151211-00:47:50|207=XSHE|10=005|
8=FIX.4.2|9=148|35=D|34=36|49=FIXTest116|52=20151211-00:47:50.267|56=SERVER|11=151211084750-34|15=CNY|21=1|38=200|40=1|54=2|55=000690|60=20151211-00:47:50|207=XSHE|10=011|
8=FIX.4.2|9=148|35=D|34=37|49=FIXTest116|52=20151211-00:47:50.367|56=SERVER|11=151211084750-35|15=CNY|21=1|38=100|40=1|54=2|55=000693|60=20151211-00:47:50|207=XSHE|10=016|
8=FIX.4.2|9=148|35=D|34=38|49=FIXTest116|52=20151211-00:47:50.470|56=SERVER|11=151211084750-36|15=CNY|21=1|38=100|40=1|54=2|55=000697|60=20151211-00:47:50|207=XSHE|10=017|
8=FIX.4.2|9=148|35=D|34=39|49=FIXTest116|52=20151211-00:47:50.572|56=SERVER|11=151211084750-37|15=CNY|21=1|38=100|40=1|54=2|55=000703|60=20151211-00:47:50|207=XSHE|10=010|
8=FIX.4.2|9=148|35=D|34=40|49=FIXTest116|52=20151211-00:47:50.736|56=SERVER|11=151211084750-38|15=CNY|21=1|38=100|40=1|54=1|55=000718|60=20151211-00:47:50|207=XSHE|10=010|
8=FIX.4.2|9=148|35=D|34=41|49=FIXTest116|52=20151211-00:47:50.822|56=SERVER|11=151211084750-39|15=CNY|21=1|38=100|40=1|54=1|55=000726|60=20151211-00:47:50|207=XSHE|10=007|
8=FIX.4.2|9=148|35=D|34=42|49=FIXTest116|52=20151211-00:47:50.862|56=SERVER|11=151211084750-40|15=CNY|21=1|38=100|40=1|54=1|55=000732|60=20151211-00:47:50|207=XSHE|10=001|
8=FIX.4.2|9=159|35=8|34=23|49=SERVER|52=20151211-00:47:04.234|56=FIXTest116|6=0|11=151211084747-11|14=0|17=611484212|20=0|37=G1174862|38=100|39=A|54=2|55=000418|150=A|151=100|10=044|
8=FIX.4.2|9=164|35=8|34=24|49=SERVER|52=20151211-00:47:04.234|56=FIXTest116|6=0|11=151211084747-11|14=0|17=611484213|20=0|32=0|37=G1174862|38=100|39=0|54=2|55=000418|150=0|151=100|10=219|
8=FIX.4.2|9=159|35=8|34=25|49=SERVER|52=20151211-00:47:04.234|56=FIXTest116|6=0|11=151211084747-12|14=0|17=611484214|20=0|37=G1174863|38=100|39=A|54=2|55=000422|150=A|151=100|10=045|
8=FIX.4.2|9=164|35=8|34=26|49=SERVER|52=20151211-00:47:04.250|56=FIXTest116|6=0|11=151211084747-12|14=0|17=611484215|20=0|32=0|37=G1174863|38=100|39=0|54=2|55=000422|150=0|151=100|10=218|
8=FIX.4.2|9=270|35=8|34=27|49=SERVER|52=20151211-00:47:04.265|56=FIXTest116|6=0|11=151211084748-13|14=0|17=611484216|20=0|37=151211084748-13|38=100|39=8|54=2|55=000488|58=error_business: Broker return: Code:-420411065 Msg:-420411065[-150906135]股份可用数不足,尚需100|103=99|150=8|151=0|10=206|
8=FIX.4.2|9=148|35=D|34=43|49=FIXTest116|52=20151211-00:47:50.993|56=SERVER|11=151211084750-41|15=CNY|21=1|38=100|40=1|54=2|55=000735|60=20151211-00:47:50|207=XSHE|10=012|
8=FIX.4.2|9=148|35=D|34=44|49=FIXTest116|52=20151211-00:47:51.107|56=SERVER|11=151211084751-42|15=CNY|21=1|38=200|40=1|54=2|55=000758|60=20151211-00:47:51|207=XSHE|10=010|
8=FIX.4.2|9=171|35=8|34=28|49=SERVER|52=20151211-00:47:04.515|56=FIXTest116|6=0|11=151211084747-11|14=100|17=611484217|20=0|31=0|32=100|37=G1174862|38=100|39=2|54=2|55=000418|150=2|151=0|10=026|
8=FIX.4.2|9=171|35=8|34=29|49=SERVER|52=20151211-00:47:04.515|56=FIXTest116|6=0|11=151211084747-12|14=100|17=611484218|20=0|31=0|32=100|37=G1174863|38=100|39=2|54=2|55=000422|150=2|151=0|10=025|
8=FIX.4.2|9=148|35=D|34=45|49=FIXTest116|52=20151211-00:47:51.204|56=SERVER|11=151211084751-43|15=CNY|21=1|38=100|40=1|54=1|55=000762|60=20151211-00:47:51|207=XSHE|10=003|
8=FIX.4.2|9=148|35=D|34=46|49=FIXTest116|52=20151211-00:47:51.307|56=SERVER|11=151211084751-44|15=CNY|21=1|38=100|40=1|54=2|55=000777|60=20151211-00:47:51|207=XSHE|10=016|
8=FIX.4.2|9=148|35=D|34=47|49=FIXTest116|52=20151211-00:47:51.410|56=SERVER|11=151211084751-45|15=CNY|21=1|38=100|40=1|54=1|55=000780|60=20151211-00:47:51|207=XSHE|10=006|
8=FIX.4.2|9=148|35=D|34=48|49=FIXTest116|52=20151211-00:47:51.509|56=SERVER|11=151211084751-46|15=CNY|21=1|38=100|40=1|54=2|55=000788|60=20151211-00:47:51|207=XSHE|10=026|
8=FIX.4.2|9=148|35=D|34=49|49=FIXTest116|52=20151211-00:47:51.608|56=SERVER|11=151211084751-47|15=CNY|21=1|38=100|40=1|54=2|55=000816|60=20151211-00:47:51|207=XSHE|10=020|
8=FIX.4.2|9=148|35=D|34=50|49=FIXTest116|52=20151211-00:47:51.711|56=SERVER|11=151211084751-48|15=CNY|21=1|38=100|40=1|54=1|55=000823|60=20151211-00:47:51|207=XSHE|10=005|
8=FIX.4.2|9=148|35=D|34=51|49=FIXTest116|52=20151211-00:47:51.810|56=SERVER|11=151211084751-49|15=CNY|21=1|38=100|40=1|54=2|55=000830|60=20151211-00:47:51|207=XSHE|10=006|
8=FIX.4.2|9=159|35=8|34=30|49=SERVER|52=20151211-00:47:05.234|56=FIXTest116|6=0|11=151211084748-14|14=0|17=611484219|20=0|37=G1174864|38=100|39=A|54=2|55=000501|150=A|151=100|10=049|
8=FIX.4.2|9=148|35=D|34=52|49=FIXTest116|52=20151211-00:47:51.919|56=SERVER|11=151211084751-50|15=CNY|21=1|38=200|40=1|54=2|55=000848|60=20151211-00:47:51|207=XSHE|10=019|
8=FIX.4.2|9=164|35=8|34=31|49=SERVER|52=20151211-00:47:05.234|56=FIXTest116|6=0|11=151211084748-14|14=0|17=611484220|20=0|32=0|37=G1174864|38=100|39=0|54=2|55=000501|150=0|151=100|10=215|
8=FIX.4.2|9=159|35=8|34=32|49=SERVER|52=20151211-00:47:05.234|56=FIXTest116|6=0|11=151211084748-15|14=0|17=611484221|20=0|37=G1174865|38=100|39=A|54=2|55=000525|150=A|151=100|10=052|
8=FIX.4.2|9=164|35=8|34=33|49=SERVER|52=20151211-00:47:05.234|56=FIXTest116|6=0|11=151211084748-15|14=0|17=611484222|20=0|32=0|37=G1174865|38=100|39=0|54=2|55=000525|150=0|151=100|10=227|
8=FIX.4.2|9=159|35=8|34=34|49=SERVER|52=20151211-00:47:05.265|56=FIXTest116|6=0|11=151211084748-16|14=0|17=611484223|20=0|37=G1174866|38=100|39=A|54=2|55=000528|150=A|151=100|10=065|
8=FIX.4.2|9=164|35=8|34=35|49=SERVER|52=20151211-00:47:05.265|56=FIXTest116|6=0|11=151211084748-16|14=0|17=611484224|20=0|32=0|37=G1174866|38=100|39=0|54=2|55=000528|150=0|151=100|10=240|
8=FIX.4.2|9=171|35=8|34=36|49=SERVER|52=20151211-00:47:05.406|56=FIXTest116|6=0|11=151211084748-14|14=100|17=611484225|20=0|31=0|32=100|37=G1174864|38=100|39=2|54=2|55=000501|150=2|151=0|10=023|
8=FIX.4.2|9=148|35=D|34=53|49=FIXTest116|52=20151211-00:47:52.035|56=SERVER|11=151211084752-51|15=CNY|21=1|38=100|40=1|54=2|55=000860|60=20151211-00:47:52|207=XSHE|10=006|
8=FIX.4.2|9=171|35=8|34=37|49=SERVER|52=20151211-00:47:05.406|56=FIXTest116|6=0|11=151211084748-16|14=100|17=611484226|20=0|31=0|32=100|37=G1174866|38=100|39=2|54=2|55=000528|150=2|151=0|10=038|
8=FIX.4.2|9=171|35=8|34=38|49=SERVER|52=20151211-00:47:05.421|56=FIXTest116|6=0|11=151211084748-15|14=100|17=611484227|20=0|31=0|32=100|37=G1174865|38=100|39=2|54=2|55=000525|150=2|151=0|10=032|
8=FIX.4.2|9=148|35=D|34=54|49=FIXTest116|52=20151211-00:47:52.122|56=SERVER|11=151211084752-52|15=CNY|21=1|38=100|40=1|54=2|55=000861|60=20151211-00:47:52|207=XSHE|10=006|
8=FIX.4.2|9=148|35=D|34=55|49=FIXTest116|52=20151211-00:47:52.221|56=SERVER|11=151211084752-53|15=CNY|21=1|38=100|40=1|54=2|55=000919|60=20151211-00:47:52|207=XSHE|10=012|
8=FIX.4.2|9=148|35=D|34=56|49=FIXTest116|52=20151211-00:47:52.322|56=SERVER|11=151211084752-54|15=CNY|21=1|38=100|40=1|54=2|55=000921|60=20151211-00:47:52|207=XSHE|10=009|
8=FIX.4.2|9=148|35=D|34=57|49=FIXTest116|52=20151211-00:47:52.425|56=SERVER|11=151211084752-55|15=CNY|21=1|38=200|40=1|54=2|55=000926|60=20151211-00:47:52|207=XSHE|10=021|
8=FIX.4.2|9=148|35=D|34=58|49=FIXTest116|52=20151211-00:47:52.525|56=SERVER|11=151211084752-56|15=CNY|21=1|38=200|40=1|54=2|55=000931|60=20151211-00:47:52|207=XSHE|10=020|
8=FIX.4.2|9=148|35=D|34=59|49=FIXTest116|52=20151211-00:47:52.624|56=SERVER|11=151211084752-57|15=CNY|21=1|38=100|40=1|54=2|55=000951|60=20151211-00:47:52|207=XSHE|10=023|
8=FIX.4.2|9=148|35=D|34=60|49=FIXTest116|52=20151211-00:47:52.728|56=SERVER|11=151211084752-58|15=CNY|21=1|38=100|40=1|54=2|55=000961|60=20151211-00:47:52|207=XSHE|10=022|
8=FIX.4.2|9=148|35=D|34=61|49=FIXTest116|52=20151211-00:47:52.817|56=SERVER|11=151211084752-59|15=CNY|21=1|38=100|40=1|54=2|55=000962|60=20151211-00:47:52|207=XSHE|10=024|
8=FIX.4.2|9=270|35=8|34=39|49=SERVER|52=20151211-00:47:06.234|56=FIXTest116|6=0|11=151211084748-17|14=0|17=611484228|20=0|37=151211084748-17|38=100|39=8|54=2|55=000540|58=error_business: Broker return: Code:-420411065 Msg:-420411065[-150906135]股份可用数不足,尚需100|103=99|150=8|151=0|10=207|
8=FIX.4.2|9=270|35=8|34=40|49=SERVER|52=20151211-00:47:06.234|56=FIXTest116|6=0|11=151211084748-18|14=0|17=611484229|20=0|37=151211084748-18|38=200|39=8|54=2|55=000543|58=error_business: Broker return: Code:-420411065 Msg:-420411065[-150906135]股份可用数不足,尚需200|103=99|150=8|151=0|10=207|
8=FIX.4.2|9=159|35=8|34=41|49=SERVER|52=20151211-00:47:06.265|56=FIXTest116|6=0|11=151211084748-19|14=0|17=611484230|20=0|37=G1174867|38=100|39=A|54=2|55=000550|150=A|151=100|10=061|
8=FIX.4.2|9=148|35=D|34=62|49=FIXTest116|52=20151211-00:47:52.928|56=SERVER|11=151211084752-60|15=CNY|21=1|38=300|40=1|54=2|55=000973|60=20151211-00:47:52|207=XSHE|10=024|
8=FIX.4.2|9=164|35=8|34=42|49=SERVER|52=20151211-00:47:06.265|56=FIXTest116|6=0|11=151211084748-19|14=0|17=611484231|20=0|32=0|37=G1174867|38=100|39=0|54=2|55=000550|150=0|151=100|10=236|
8=FIX.4.2|9=148|35=D|34=63|49=FIXTest116|52=20151211-00:47:53.023|56=SERVER|11=151211084753-61|15=CNY|21=1|38=100|40=1|54=1|55=000975|60=20151211-00:47:53|207=XSHE|10=014|
8=FIX.4.2|9=171|35=8|34=43|49=SERVER|52=20151211-00:47:06.406|56=FIXTest116|6=0|11=151211084748-19|14=100|17=611484232|20=0|31=0|32=100|37=G1174867|38=100|39=2|54=2|55=000550|150=2|151=0|10=032|
8=FIX.4.2|9=148|35=D|34=64|49=FIXTest116|52=20151211-00:47:53.127|56=SERVER|11=151211084753-62|15=CNY|21=1|38=200|40=1|54=2|55=000979|60=20151211-00:47:53|207=XSHE|10=027|
8=FIX.4.2|9=148|35=D|34=65|49=FIXTest116|52=20151211-00:47:53.231|56=SERVER|11=151211084753-63|15=CNY|21=1|38=100|40=1|54=2|55=001696|60=20151211-00:47:53|207=XSHE|10=021|
8=FIX.4.2|9=148|35=D|34=66|49=FIXTest116|52=20151211-00:47:53.333|56=SERVER|11=151211084753-64|15=CNY|21=1|38=200|40=1|54=2|55=002004|60=20151211-00:47:53|207=XSHE|10=011|
8=FIX.4.2|9=148|35=D|34=67|49=FIXTest116|52=20151211-00:47:53.432|56=SERVER|11=151211084753-65|15=CNY|21=1|38=100|40=1|54=2|55=002005|60=20151211-00:47:53|207=XSHE|10=013|
8=FIX.4.2|9=148|35=D|34=68|49=FIXTest116|52=20151211-00:47:53.535|56=SERVER|11=151211084753-66|15=CNY|21=1|38=200|40=1|54=2|55=002011|60=20151211-00:47:53|207=XSHE|10=017|
8=FIX.4.2|9=148|35=D|34=69|49=FIXTest116|52=20151211-00:47:53.631|56=SERVER|11=151211084753-67|15=CNY|21=1|38=100|40=1|54=1|55=002013|60=20151211-00:47:53|207=XSHE|10=016|
8=FIX.4.2|9=148|35=D|34=70|49=FIXTest116|52=20151211-00:47:53.736|56=SERVER|11=151211084753-68|15=CNY|21=1|38=100|40=1|54=1|55=002022|60=20151211-00:47:53|207=XSHE|10=015|
8=FIX.4.2|9=148|35=D|34=71|49=FIXTest116|52=20151211-00:47:53.837|56=SERVER|11=151211084753-69|15=CNY|21=1|38=100|40=1|54=2|55=002025|60=20151211-00:47:53|207=XSHE|10=023|
8=FIX.4.2|9=159|35=8|34=44|49=SERVER|52=20151211-00:47:07.234|56=FIXTest116|6=0|11=151211084748-20|14=0|17=611484233|20=0|37=G1174868|38=100|39=A|54=2|55=000552|150=A|151=100|10=059|
8=FIX.4.2|9=159|35=8|34=45|49=SERVER|52=20151211-00:47:07.234|56=FIXTest116|6=0|11=151211084748-21|14=0|17=611484234|20=0|37=G1174869|38=100|39=A|54=1|55=000563|150=A|151=100|10=064|
8=FIX.4.2|9=148|35=D|34=72|49=FIXTest116|52=20151211-00:47:54.024|56=SERVER|11=151211084754-70|15=CNY|21=1|38=100|40=1|54=1|55=002028|60=20151211-00:47:54|207=XSHE|10=009|
8=FIX.4.2|9=164|35=8|34=46|49=SERVER|52=20151211-00:47:07.234|56=FIXTest116|6=0|11=151211084748-20|14=0|17=611484235|20=0|32=0|37=G1174868|38=100|39=0|54=2|55=000552|150=0|151=100|10=236|
8=FIX.4.2|9=164|35=8|34=47|49=SERVER|52=20151211-00:47:07.250|56=FIXTest116|6=0|11=151211084748-21|14=0|17=611484236|20=0|32=0|37=G1174869|38=100|39=0|54=1|55=000563|150=0|151=100|10=239|
8=FIX.4.2|9=270|35=8|34=48|49=SERVER|52=20151211-00:47:07.281|56=FIXTest116|6=0|11=151211084748-22|14=0|17=611484237|20=0|37=151211084748-22|38=200|39=8|54=2|55=000572|58=error_business: Broker return: Code:-420411065 Msg:-420411065[-150906135]股份可用数不足,尚需200|103=99|150=8|151=0|10=209|
8=FIX.4.2|9=148|35=D|34=73|49=FIXTest116|52=20151211-00:47:54.058|56=SERVER|11=151211084754-71|15=CNY|21=1|38=100|40=1|54=1|55=002029|60=20151211-00:47:54|207=XSHE|10=019|
8=FIX.4.2|9=171|35=8|34=49|49=SERVER|52=20151211-00:47:07.421|56=FIXTest116|6=0|11=151211084748-21|14=100|17=611484238|20=0|31=0|32=100|37=G1174869|38=100|39=2|54=1|55=000563|150=2|151=0|10=040|
8=FIX.4.2|9=171|35=8|34=50|49=SERVER|52=20151211-00:47:07.437|56=FIXTest116|6=0|11=151211084748-20|14=100|17=611484239|20=0|31=0|32=100|37=G1174868|38=100|39=2|54=2|55=000552|150=2|151=0|10=037|
8=FIX.4.2|9=148|35=D|34=74|49=FIXTest116|52=20151211-00:47:54.162|56=SERVER|11=151211084754-72|15=CNY|21=1|38=100|40=1|54=1|55=002030|60=20151211-00:47:54|207=XSHE|10=009|
8=FIX.4.2|9=148|35=D|34=75|49=FIXTest116|52=20151211-00:47:54.263|56=SERVER|11=151211084754-73|15=CNY|21=1|38=100|40=1|54=2|55=002041|60=20151211-00:47:54|207=XSHE|10=016|
8=FIX.4.2|9=148|35=D|34=76|49=FIXTest116|52=20151211-00:47:54.369|56=SERVER|11=151211084754-74|15=CNY|21=1|38=100|40=1|54=2|55=002049|60=20151211-00:47:54|207=XSHE|10=033|
8=FIX.4.2|9=148|35=D|34=77|49=FIXTest116|52=20151211-00:47:54.464|56=SERVER|11=151211084754-75|15=CNY|21=1|38=100|40=1|54=2|55=002050|60=20151211-00:47:54|207=XSHE|10=023|
8=FIX.4.2|9=148|35=D|34=78|49=FIXTest116|52=20151211-00:47:54.567|56=SERVER|11=151211084754-76|15=CNY|21=1|38=100|40=1|54=2|55=002056|60=20151211-00:47:54|207=XSHE|10=035|
8=FIX.4.2|9=148|35=D|34=79|49=FIXTest116|52=20151211-00:47:54.667|56=SERVER|11=151211084754-77|15=CNY|21=1|38=100|40=1|54=1|55=002063|60=20151211-00:47:54|207=XSHE|10=035|
8=FIX.4.2|9=148|35=D|34=80|49=FIXTest116|52=20151211-00:47:54.765|56=SERVER|11=151211084754-78|15=CNY|21=1|38=100|40=1|54=2|55=002064|60=20151211-00:47:54|207=XSHE|10=029|
8=FIX.4.2|9=148|35=D|34=81|49=FIXTest116|52=20151211-00:47:54.866|56=SERVER|11=151211084754-79|15=CNY|21=1|38=100|40=1|54=1|55=002069|60=20151211-00:47:54|207=XSHE|10=037|
8=FIX.4.2|9=159|35=8|34=51|49=SERVER|52=20151211-00:47:08.234|56=FIXTest116|6=0|11=151211084749-23|14=0|17=611484240|20=0|37=G1174870|38=100|39=A|54=1|55=000587|150=A|151=100|10=060|
8=FIX.4.2|9=164|35=8|34=52|49=SERVER|52=20151211-00:47:08.234|56=FIXTest116|6=0|11=151211084749-23|14=0|17=611484241|20=0|32=0|37=G1174870|38=100|39=0|54=1|55=000587|150=0|151=100|10=235|
8=FIX.4.2|9=159|35=8|34=53|49=SERVER|52=20151211-00:47:08.250|56=FIXTest116|6=0|11=151211084749-24|14=0|17=611484242|20=0|37=G1174871|38=200|39=A|54=2|55=000600|150=A|151=200|10=053|
8=FIX.4.2|9=164|35=8|34=54|49=SERVER|52=20151211-00:47:08.250|56=FIXTest116|6=0|11=151211084749-24|14=0|17=611484243|20=0|32=0|37=G1174871|38=200|39=0|54=2|55=000600|150=0|151=200|10=228|
8=FIX.4.2|9=159|35=8|34=55|49=SERVER|52=20151211-00:47:08.265|56=FIXTest116|6=0|11=151211084749-25|14=0|17=611484244|20=0|37=G1174872|38=200|39=A|54=1|55=000616|150=A|151=200|10=071|
8=FIX.4.2|9=148|35=D|34=82|49=FIXTest116|52=20151211-00:47:54.989|56=SERVER|11=151211084754-80|15=CNY|21=1|38=100|40=1|54=1|55=002078|60=20151211-00:47:54|207=XSHE|10=036|
8=FIX.4.2|9=164|35=8|34=56|49=SERVER|52=20151211-00:47:08.265|56=FIXTest116|6=0|11=151211084749-25|14=0|17=611484245|20=0|32=0|37=G1174872|38=200|39=0|54=1|55=000616|150=0|151=200|10=246|
8=FIX.4.2|9=148|35=D|34=83|49=FIXTest116|52=20151211-00:47:55.084|56=SERVER|11=151211084755-81|15=CNY|21=1|38=100|40=1|54=2|55=002092|60=20151211-00:47:55|207=XSHE|10=024|
8=FIX.4.2|9=171|35=8|34=57|49=SERVER|52=20151211-00:47:08.546|56=FIXTest116|6=0|11=151211084749-25|14=200|17=611484246|20=0|31=0|32=200|37=G1174872|38=200|39=2|54=1|55=000616|150=2|151=0|10=048|
8=FIX.4.2|9=148|35=D|34=84|49=FIXTest116|52=20151211-00:47:55.193|56=SERVER|11=151211084755-82|15=CNY|21=1|38=100|40=1|54=1|55=002093|60=20151211-00:47:55|207=XSHE|10=027|
8=FIX.4.2|9=171|35=8|34=58|49=SERVER|52=20151211-00:47:08.546|56=FIXTest116|6=0|11=151211084749-24|14=200|17=611484247|20=0|31=0|32=200|37=G1174871|38=200|39=2|54=2|55=000600|150=2|151=0|10=042|
8=FIX.4.2|9=171|35=8|34=59|49=SERVER|52=20151211-00:47:08.562|56=FIXTest116|6=0|11=151211084749-23|14=100|17=611484248|20=0|31=0|32=100|37=G1174870|38=100|39=2|54=1|55=000587|150=2|151=0|10=050|
8=FIX.4.2|9=148|35=D|34=85|49=FIXTest116|52=20151211-00:47:55.292|56=SERVER|11=151211084755-83|15=CNY|21=1|38=100|40=1|54=2|55=002118|60=20151211-00:47:55|207=XSHE|10=028|
8=FIX.4.2|9=148|35=D|34=86|49=FIXTest116|52=20151211-00:47:55.396|56=SERVER|11=151211084755-84|15=CNY|21=1|38=100|40=1|54=2|55=002128|60=20151211-00:47:55|207=XSHE|10=036|
8=FIX.4.2|9=148|35=D|34=87|49=FIXTest116|52=20151211-00:47:55.494|56=SERVER|11=151211084755-85|15=CNY|21=1|38=100|40=1|54=2|55=002140|60=20151211-00:47:55|207=XSHE|10=031|
8=FIX.4.2|9=148|35=D|34=88|49=FIXTest116|52=20151211-00:47:55.600|56=SERVER|11=151211084755-86|15=CNY|21=1|38=100|40=1|54=2|55=002179|60=20151211-00:47:55|207=XSHE|10=034|
8=FIX.4.2|9=148|35=D|34=89|49=FIXTest116|52=20151211-00:47:55.685|56=SERVER|11=151211084755-87|15=CNY|21=1|38=200|40=1|54=2|55=002181|60=20151211-00:47:55|207=XSHE|10=043|
8=FIX.4.2|9=148|35=D|34=90|49=FIXTest116|52=20151211-00:47:55.794|56=SERVER|11=151211084755-88|15=CNY|21=1|38=100|40=1|54=1|55=002183|60=20151211-00:47:55|207=XSHE|10=037|
8=FIX.4.2|9=159|35=8|34=60|49=SERVER|52=20151211-00:47:09.234|56=FIXTest116|6=0|11=151211084749-26|14=0|17=611484249|20=0|37=G1174873|38=200|39=A|54=2|55=000620|150=A|151=200|10=067|
8=FIX.4.2|9=159|35=8|34=61|49=SERVER|52=20151211-00:47:09.250|56=FIXTest116|6=0|11=151211084749-27|14=0|17=611484250|20=0|37=G1174874|38=100|39=A|54=1|55=000650|150=A|151=100|10=060|
8=FIX.4.2|9=148|35=D|34=91|49=FIXTest116|52=20151211-00:47:55.942|56=SERVER|11=151211084755-89|15=CNY|21=1|38=100|40=1|54=2|55=002190|60=20151211-00:47:55|207=XSHE|10=033|
8=FIX.4.2|9=164|35=8|34=62|49=SERVER|52=20151211-00:47:09.250|56=FIXTest116|6=0|11=151211084749-26|14=0|17=611484251|20=0|32=0|37=G1174873|38=200|39=0|54=2|55=000620|150=0|151=200|10=233|
8=FIX.4.2|9=164|35=8|34=63|49=SERVER|52=20151211-00:47:09.250|56=FIXTest116|6=0|11=151211084749-27|14=0|17=611484252|20=0|32=0|37=G1174874|38=100|39=0|54=1|55=000650|150=0|151=100|10=237|
8=FIX.4.2|9=159|35=8|34=64|49=SERVER|52=20151211-00:47:09.281|56=FIXTest116|6=0|11=151211084749-28|14=0|17=611484253|20=0|37=G1174875|38=100|39=A|54=1|55=000652|150=A|151=100|10=074|
8=FIX.4.2|9=164|35=8|34=65|49=SERVER|52=20151211-00:47:09.281|56=FIXTest116|6=0|11=151211084749-28|14=0|17=611484254|20=0|32=0|37=G1174875|38=100|39=0|54=1|55=000652|150=0|151=100|10=249|
8=FIX.4.2|9=171|35=8|34=66|49=SERVER|52=20151211-00:47:09.312|56=FIXTest116|6=0|11=151211084749-27|14=100|17=611484255|20=0|31=0|32=100|37=G1174874|38=100|39=2|54=1|55=000650|150=2|151=0|10=039|
8=FIX.4.2|9=171|35=8|34=67|49=SERVER|52=20151211-00:47:09.328|56=FIXTest116|6=0|11=151211084749-26|14=200|17=611484256|20=0|31=0|32=200|37=G1174873|38=200|39=2|54=2|55=000620|150=2|151=0|10=047|
8=FIX.4.2|9=148|35=D|34=92|49=FIXTest116|52=20151211-00:47:56.021|56=SERVER|11=151211084756-90|15=CNY|21=1|38=100|40=1|54=2|55=002194|60=20151211-00:47:56|207=XSHE|10=021|
8=FIX.4.2|9=148|35=D|34=93|49=FIXTest116|52=20151211-00:47:56.122|56=SERVER|11=151211084756-91|15=CNY|21=1|38=100|40=1|54=2|55=002195|60=20151211-00:47:56|207=XSHE|10=026|
8=FIX.4.2|9=171|35=8|34=68|49=SERVER|52=20151211-00:47:09.531|56=FIXTest116|6=0|11=151211084749-28|14=100|17=611484257|20=0|31=0|32=100|37=G1174875|38=100|39=2|54=1|55=000652|150=2|151=0|10=050|
8=FIX.4.2|9=148|35=D|34=94|49=FIXTest116|52=20151211-00:47:56.224|56=SERVER|11=151211084756-92|15=CNY|21=1|38=100|40=1|54=1|55=002204|60=20151211-00:47:56|207=XSHE|10=021|
8=FIX.4.2|9=148|35=D|34=95|49=FIXTest116|52=20151211-00:47:56.327|56=SERVER|11=151211084756-93|15=CNY|21=1|38=100|40=1|54=2|55=002216|60=20151211-00:47:56|207=XSHE|10=031|
8=FIX.4.2|9=148|35=D|34=96|49=FIXTest116|52=20151211-00:47:56.447|56=SERVER|11=151211084756-94|15=CNY|21=1|38=100|40=1|54=2|55=002221|60=20151211-00:47:56|207=XSHE|10=032|
8=FIX.4.2|9=148|35=D|34=97|49=FIXTest116|52=20151211-00:47:56.529|56=SERVER|11=151211084756-95|15=CNY|21=1|38=100|40=1|54=2|55=002223|60=20151211-00:47:56|207=XSHE|10=037|
8=FIX.4.2|9=148|35=D|34=98|49=FIXTest116|52=20151211-00:47:56.632|56=SERVER|11=151211084756-96|15=CNY|21=1|38=100|40=1|54=2|55=002225|60=20151211-00:47:56|207=XSHE|10=036|
8=FIX.4.2|9=148|35=D|34=99|49=FIXTest116|52=20151211-00:47:56.732|56=SERVER|11=151211084756-97|15=CNY|21=1|38=100|40=1|54=1|55=002233|60=20151211-00:47:56|207=XSHE|10=037|
8=FIX.4.2|9=149|35=D|34=100|49=FIXTest116|52=20151211-00:47:56.827|56=SERVER|11=151211084756-98|15=CNY|21=1|38=600|40=1|54=2|55=002237|60=20151211-00:47:56|207=XSHE|10=085|
8=FIX.4.2|9=270|35=8|34=69|49=SERVER|52=20151211-00:47:10.234|56=FIXTest116|6=0|11=151211084749-29|14=0|17=611484258|20=0|37=151211084749-29|38=100|39=8|54=2|55=000656|58=error_business: Broker return: Code:-420411065 Msg:-420411065[-150906135]股份可用数不足,尚需100|103=99|150=8|151=0|10=224|
8=FIX.4.2|9=270|35=8|34=70|49=SERVER|52=20151211-00:47:10.234|56=FIXTest116|6=0|11=151211084749-30|14=0|17=611484259|20=0|37=151211084749-30|38=200|39=8|54=2|55=000667|58=error_business: Broker return: Code:-420411065 Msg:-420411065[-150906135]股份可用数不足,尚需200|103=99|150=8|151=0|10=205|
8=FIX.4.2|9=270|35=8|34=71|49=SERVER|52=20151211-00:47:10.265|56=FIXTest116|6=0|11=151211084749-31|14=0|17=611484260|20=0|37=151211084749-31|38=100|39=8|54=2|55=000680|58=error_business: Broker return: Code:-420411065 Msg:-420411065[-150906135]股份可用数不足,尚需100|103=99|150=8|151=0|10=197|
8=FIX.4.2|9=149|35=D|34=101|49=FIXTest116|52=20151211-00:47:56.931|56=SERVER|11=151211084756-99|15=CNY|21=1|38=100|40=1|54=2|55=002238|60=20151211-00:47:56|207=XSHE|10=079|
8=FIX.4.2|9=150|35=D|34=102|49=FIXTest116|52=20151211-00:47:57.029|56=SERVER|11=151211084757-100|15=CNY|21=1|38=400|40=1|54=1|55=002240|60=20151211-00:47:57|207=XSHE|10=099|
8=FIX.4.2|9=150|35=D|34=103|49=FIXTest116|52=20151211-00:47:57.132|56=SERVER|11=151211084757-101|15=CNY|21=1|38=100|40=1|54=2|55=002242|60=20151211-00:47:57|207=XSHE|10=096|
8=FIX.4.2|9=150|35=D|34=104|49=FIXTest116|52=20151211-00:47:57.237|56=SERVER|11=151211084757-102|15=CNY|21=1|38=100|40=1|54=1|55=002244|60=20151211-00:47:57|207=XSHE|10=105|
8=FIX.4.2|9=150|35=D|34=105|49=FIXTest116|52=20151211-00:47:57.335|56=SERVER|11=151211084757-103|15=CNY|21=1|38=200|40=1|54=2|55=002249|60=20151211-00:47:57|207=XSHE|10=113|
8=FIX.4.2|9=150|35=D|34=106|49=FIXTest116|52=20151211-00:47:57.435|56=SERVER|11=151211084757-104|15=CNY|21=1|38=100|40=1|54=1|55=002251|60=20151211-00:47:57|207=XSHE|10=107|
8=FIX.4.2|9=150|35=D|34=107|49=FIXTest116|52=20151211-00:47:57.536|56=SERVER|11=151211084757-105|15=CNY|21=1|38=100|40=1|54=1|55=002254|60=20151211-00:47:57|207=XSHE|10=114|
8=FIX.4.2|9=150|35=D|34=108|49=FIXTest116|52=20151211-00:47:57.639|56=SERVER|11=151211084757-106|15=CNY|21=1|38=100|40=1|54=2|55=002266|60=20151211-00:47:57|207=XSHE|10=124|
8=FIX.4.2|9=150|35=D|34=109|49=FIXTest116|52=20151211-00:47:57.738|56=SERVER|11=151211084757-107|15=CNY|21=1|38=100|40=1|54=2|55=002267|60=20151211-00:47:57|207=XSHE|10=127|
8=FIX.4.2|9=150|35=D|34=110|49=FIXTest116|52=20151211-00:47:57.837|56=SERVER|11=151211084757-108|15=CNY|21=1|38=100|40=1|54=2|55=002269|60=20151211-00:47:57|207=XSHE|10=122|
8=FIX.4.2|9=270|35=8|34=72|49=SERVER|52=20151211-00:47:11.234|56=FIXTest116|6=0|11=151211084750-32|14=0|17=611484261|20=0|37=151211084750-32|38=100|39=8|54=2|55=000681|58=error_business: Broker return: Code:-420411065 Msg:-420411065[-150906135]股份可用数不足,尚需100|103=99|150=8|151=0|10=183|
8=FIX.4.2|9=159|35=8|34=73|49=SERVER|52=20151211-00:47:11.250|56=FIXTest116|6=0|11=151211084750-33|14=0|17=611484262|20=0|37=G1174876|38=100|39=A|54=1|55=000688|150=A|151=100|10=061|
8=FIX.4.2|9=150|35=D|34=111|49=FIXTest116|52=20151211-00:47:57.976|56=SERVER|11=151211084757-109|15=CNY|21=1|38=100|40=1|54=1|55=002271|60=20151211-00:47:57|207=XSHE|10=120|
8=FIX.4.2|9=164|35=8|34=74|49=SERVER|52=20151211-00:47:11.250|56=FIXTest116|6=0|11=151211084750-33|14=0|17=611484263|20=0|32=0|37=G1174876|38=100|39=0|54=1|55=000688|150=0|151=100|10=236|
8=FIX.4.2|9=270|35=8|34=75|49=SERVER|52=20151211-00:47:11.265|56=FIXTest116|6=0|11=151211084750-34|14=0|17=611484264|20=0|37=151211084750-34|38=200|39=8|54=2|55=000690|58=error_business: Broker return: Code:-420411065 Msg:-420411065[-150906135]股份可用数不足,尚需200|103=99|150=8|151=0|10=199|
8=FIX.4.2|9=150|35=D|34=112|49=FIXTest116|52=20151211-00:47:58.028|56=SERVER|11=151211084758-110|15=CNY|21=1|38=100|40=1|54=2|55=002273|60=20151211-00:47:58|207=XSHE|10=107|
8=FIX.4.2|9=171|35=8|34=76|49=SERVER|52=20151211-00:47:11.500|56=FIXTest116|6=0|11=151211084750-33|14=100|17=611484265|20=0|31=0|32=100|37=G1174876|38=100|39=2|54=1|55=000688|150=2|151=0|10=035|
8=FIX.4.2|9=150|35=D|34=113|49=FIXTest116|52=20151211-00:47:58.133|56=SERVER|11=151211084758-111|15=CNY|21=1|38=100|40=1|54=2|55=002275|60=20151211-00:47:58|207=XSHE|10=108|
8=FIX.4.2|9=150|35=D|34=114|49=FIXTest116|52=20151211-00:47:58.246|56=SERVER|11=151211084758-112|15=CNY|21=1|38=200|40=1|54=2|55=002276|60=20151211-00:47:58|207=XSHE|10=117|
8=FIX.4.2|9=150|35=D|34=115|49=FIXTest116|52=20151211-00:47:58.343|56=SERVER|11=151211084758-113|15=CNY|21=1|38=100|40=1|54=1|55=002277|60=20151211-00:47:58|207=XSHE|10=116|
8=FIX.4.2|9=150|35=D|34=116|49=FIXTest116|52=20151211-00:47:58.440|56=SERVER|11=151211084758-114|15=CNY|21=1|38=100|40=1|54=2|55=002293|60=20151211-00:47:58|207=XSHE|10=115|
8=FIX.4.2|9=150|35=D|34=117|49=FIXTest116|52=20151211-00:47:58.538|56=SERVER|11=151211084758-115|15=CNY|21=1|38=100|40=1|54=1|55=002299|60=20151211-00:47:58|207=XSHE|10=130|
8=FIX.4.2|9=150|35=D|34=118|49=FIXTest116|52=20151211-00:47:58.643|56=SERVER|11=151211084758-116|15=CNY|21=1|38=100|40=1|54=1|55=002317|60=20151211-00:47:58|207=XSHE|10=120|
8=FIX.4.2|9=150|35=D|34=119|49=FIXTest116|52=20151211-00:47:58.738|56=SERVER|11=151211084758-117|15=CNY|21=1|38=200|40=1|54=1|55=002325|60=20151211-00:47:58|207=XSHE|10=127|
8=FIX.4.2|9=150|35=D|34=120|49=FIXTest116|52=20151211-00:47:58.843|56=SERVER|11=151211084758-118|15=CNY|21=1|38=100|40=1|54=2|55=002327|60=20151211-00:47:58|207=XSHE|10=119|
8=FIX.4.2|9=270|35=8|34=77|49=SERVER|52=20151211-00:47:12.234|56=FIXTest116|6=0|11=151211084750-35|14=0|17=611484266|20=0|37=151211084750-35|38=100|39=8|54=2|55=000693|58=error_business: Broker return: Code:-420411065 Msg:-420411065[-150906135]股份可用数不足,尚需100|103=99|150=8|151=0|10=203|
8=FIX.4.2|9=270|35=8|34=78|49=SERVER|52=20151211-00:47:12.234|56=FIXTest116|6=0|11=151211084750-36|14=0|17=611484267|20=0|37=151211084750-36|38=100|39=8|54=2|55=000697|58=error_business: Broker return: Code:-420411065 Msg:-420411065[-150906135]股份可用数不足,尚需100|103=99|150=8|151=0|10=211|
8=FIX.4.2|9=159|35=8|34=79|49=SERVER|52=20151211-00:47:12.265|56=FIXTest116|6=0|11=151211084750-37|14=0|17=611484268|20=0|37=G1174877|38=100|39=A|54=2|55=000703|150=A|151=100|10=074|
8=FIX.4.2|9=164|35=8|34=80|49=SERVER|52=20151211-00:47:12.265|56=FIXTest116|6=0|11=151211084750-37|14=0|17=611484269|20=0|32=0|37=G1174877|38=100|39=0|54=2|55=000703|150=0|151=100|10=240|
8=FIX.4.2|9=150|35=D|34=121|49=FIXTest116|52=20151211-00:47:58.990|56=SERVER|11=151211084758-119|15=CNY|21=1|38=100|40=1|54=2|55=002332|60=20151211-00:47:58|207=XSHE|10=120|
8=FIX.4.2|9=150|35=D|34=122|49=FIXTest116|52=20151211-00:47:59.089|56=SERVER|11=151211084759-120|15=CNY|21=1|38=100|40=1|54=2|55=002340|60=20151211-00:47:59|207=XSHE|10=114|
8=FIX.4.2|9=171|35=8|34=81|49=SERVER|52=20151211-00:47:12.500|56=FIXTest116|6=0|11=151211084750-37|14=100|17=611484270|20=0|31=0|32=100|37=G1174877|38=100|39=2|54=2|55=000703|150=2|151=0|10=022|
8=FIX.4.2|9=150|35=D|34=123|49=FIXTest116|52=20151211-00:47:59.187|56=SERVER|11=151211084759-121|15=CNY|21=1|38=100|40=1|54=1|55=002345|60=20151211-00:47:59|207=XSHE|10=119|
8=FIX.4.2|9=150|35=D|34=124|49=FIXTest116|52=20151211-00:47:59.294|56=SERVER|11=151211084759-122|15=CNY|21=1|38=200|40=1|54=2|55=002390|60=20151211-00:47:59|207=XSHE|10=122|
8=FIX.4.2|9=150|35=D|34=125|49=FIXTest116|52=20151211-00:47:59.392|56=SERVER|11=151211084759-123|15=CNY|21=1|38=100|40=1|54=2|55=002396|60=20151211-00:47:59|207=XSHE|10=128|
8=FIX.4.2|9=150|35=D|34=126|49=FIXTest116|52=20151211-00:47:59.486|56=SERVER|11=151211084759-124|15=CNY|21=1|38=100|40=1|54=2|55=002400|60=20151211-00:47:59|207=XSHE|10=120|
8=FIX.4.2|9=150|35=D|34=127|49=FIXTest116|52=20151211-00:47:59.592|56=SERVER|11=151211084759-125|15=CNY|21=1|38=200|40=1|54=2|55=002405|60=20151211-00:47:59|207=XSHE|10=126|
8=FIX.4.2|9=150|35=D|34=128|49=FIXTest116|52=20151211-00:47:59.688|56=SERVER|11=151211084759-126|15=CNY|21=1|38=100|40=1|54=1|55=002408|60=20151211-00:47:59|207=XSHE|10=135|
8=FIX.4.2|9=150|35=D|34=129|49=FIXTest116|52=20151211-00:47:59.795|56=SERVER|11=151211084759-127|15=CNY|21=1|38=100|40=1|54=2|55=002414|60=20151211-00:47:59|207=XSHE|10=134|
8=FIX.4.2|9=159|35=8|34=82|49=SERVER|52=20151211-00:47:13.234|56=FIXTest116|6=0|11=151211084750-38|14=0|17=611484271|20=0|37=G1174878|38=100|39=A|54=1|55=000718|150=A|151=100|10=066|
8=FIX.4.2|9=159|35=8|34=83|49=SERVER|52=20151211-00:47:13.234|56=FIXTest116|6=0|11=151211084750-39|14=0|17=611484272|20=0|37=G1174879|38=100|39=A|54=1|55=000726|150=A|151=100|10=069|
8=FIX.4.2|9=150|35=D|34=130|49=FIXTest116|52=20151211-00:47:59.930|56=SERVER|11=151211084759-128|15=CNY|21=1|38=100|40=1|54=2|55=002419|60=20151211-00:47:59|207=XSHE|10=123|
8=FIX.4.2|9=164|35=8|34=84|49=SERVER|52=20151211-00:47:13.234|56=FIXTest116|6=0|11=151211084750-38|14=0|17=611484273|20=0|32=0|37=G1174878|38=100|39=0|54=1|55=000718|150=0|151=100|10=243|
8=FIX.4.2|9=164|35=8|34=85|49=SERVER|52=20151211-00:47:13.250|56=FIXTest116|6=0|11=151211084750-39|14=0|17=611484274|20=0|32=0|37=G1174879|38=100|39=0|54=1|55=000726|150=0|151=100|10=244|
8=FIX.4.2|9=159|35=8|34=86|49=SERVER|52=20151211-00:47:13.265|56=FIXTest116|6=0|11=151211084750-40|14=0|17=611484275|20=0|37=G1174880|38=100|39=A|54=1|55=000732|150=A|151=100|10=060|
8=FIX.4.2|9=164|35=8|34=87|49=SERVER|52=20151211-00:47:13.265|56=FIXTest116|6=0|11=151211084750-40|14=0|17=611484276|20=0|32=0|37=G1174880|38=100|39=0|54=1|55=000732|150=0|151=100|10=235|
8=FIX.4.2|9=171|35=8|34=88|49=SERVER|52=20151211-00:47:13.359|56=FIXTest116|6=0|11=151211084750-38|14=100|17=611484277|20=0|31=0|32=100|37=G1174878|38=100|39=2|54=1|55=000718|150=2|151=0|10=056|
8=FIX.4.2|9=150|35=D|34=131|49=FIXTest116|52=20151211-00:48:00.011|56=SERVER|11=151211084800-129|15=CNY|21=1|38=200|40=1|54=2|55=002424|60=20151211-00:48:00|207=XSHE|10=073|
8=FIX.4.2|9=171|35=8|34=89|49=SERVER|52=20151211-00:47:13.375|56=FIXTest116|6=0|11=151211084750-39|14=100|17=611484278|20=0|31=0|32=100|37=G1174879|38=100|39=2|54=1|55=000726|150=2|151=0|10=057|
8=FIX.4.2|9=150|35=D|34=132|49=FIXTest116|52=20151211-00:48:00.116|56=SERVER|11=151211084800-130|15=CNY|21=1|38=200|40=1|54=2|55=002428|60=20151211-00:48:00|207=XSHE|10=076|
8=FIX.4.2|9=171|35=8|34=90|49=SERVER|52=20151211-00:47:13.578|56=FIXTest116|6=0|11=151211084750-40|14=100|17=611484279|20=0|31=0|32=100|37=G1174880|38=100|39=2|54=1|55=000732|150=2|151=0|10=036|
8=FIX.4.2|9=150|35=D|34=133|49=FIXTest116|52=20151211-00:48:00.221|56=SERVER|11=151211084800-131|15=CNY|21=1|38=100|40=1|54=2|55=002430|60=20151211-00:48:00|207=XSHE|10=067|
8=FIX.4.2|9=150|35=D|34=134|49=FIXTest116|52=20151211-00:48:00.322|56=SERVER|11=151211084800-132|15=CNY|21=1|38=100|40=1|54=2|55=002431|60=20151211-00:48:00|207=XSHE|10=072|
8=FIX.4.2|9=150|35=D|34=135|49=FIXTest116|52=20151211-00:48:00.421|56=SERVER|11=151211084800-133|15=CNY|21=1|38=100|40=1|54=2|55=002437|60=20151211-00:48:00|207=XSHE|10=080|
8=FIX.4.2|9=150|35=D|34=136|49=FIXTest116|52=20151211-00:48:00.523|56=SERVER|11=151211084800-134|15=CNY|21=1|38=100|40=1|54=1|55=002440|60=20151211-00:48:00|207=XSHE|10=078|
8=FIX.4.2|9=150|35=D|34=137|49=FIXTest116|52=20151211-00:48:00.620|56=SERVER|11=151211084800-135|15=CNY|21=1|38=200|40=1|54=2|55=002444|60=20151211-00:48:00|207=XSHE|10=084|
8=FIX.4.2|9=150|35=D|34=138|49=FIXTest116|52=20151211-00:48:00.723|56=SERVER|11=151211084800-136|15=CNY|21=1|38=100|40=1|54=2|55=002461|60=20151211-00:48:00|207=XSHE|10=088|
8=FIX.4.2|9=150|35=D|34=139|49=FIXTest116|52=20151211-00:48:00.824|56=SERVER|11=151211084800-137|15=CNY|21=1|38=100|40=1|54=2|55=002463|60=20151211-00:48:00|207=XSHE|10=094|
8=FIX.4.2|9=270|35=8|34=91|49=SERVER|52=20151211-00:47:14.234|56=FIXTest116|6=0|11=151211084750-41|14=0|17=611484280|20=0|37=151211084750-41|38=100|39=8|54=2|55=000735|58=error_business: Broker return: Code:-420411065 Msg:-420411065[-150906135]股份可用数不足,尚需100|103=99|150=8|151=0|10=188|
8=FIX.4.2|9=150|35=D|34=140|49=FIXTest116|52=20151211-00:48:00.915|56=SERVER|11=151211084800-138|15=CNY|21=1|38=100|40=1|54=2|55=002477|60=20151211-00:48:00|207=XSHE|10=093|
8=FIX.4.2|9=270|35=8|34=92|49=SERVER|52=20151211-00:47:14.234|56=FIXTest116|6=0|11=151211084751-42|14=0|17=611484281|20=0|37=151211084751-42|38=200|39=8|54=2|55=000758|58=error_business: Broker return: Code:-420411065 Msg:-420411065[-150906135]股份可用数不足,尚需200|103=99|150=8|151=0|10=201|
8=FIX.4.2|9=159|35=8|34=93|49=SERVER|52=20151211-00:47:14.265|56=FIXTest116|6=0|11=151211084751-43|14=0|17=611484282|20=0|37=G1174881|38=100|39=A|54=1|55=000762|150=A|151=100|10=065|
8=FIX.4.2|9=164|35=8|34=94|49=SERVER|52=20151211-00:47:14.265|56=FIXTest116|6=0|11=151211084751-43|14=0|17=611484283|20=0|32=0|37=G1174881|38=100|39=0|54=1|55=000762|150=0|151=100|10=240|
8=FIX.4.2|9=150|35=D|34=141|49=FIXTest116|52=20151211-00:48:01.021|56=SERVER|11=151211084801-139|15=CNY|21=1|38=100|40=1|54=1|55=002479|60=20151211-00:48:01|207=XSHE|10=087|
8=FIX.4.2|9=171|35=8|34=95|49=SERVER|52=20151211-00:47:14.453|56=FIXTest116|6=0|11=151211084751-43|14=100|17=611484284|20=0|31=0|32=100|37=G1174881|38=100|39=2|54=1|55=000762|150=2|151=0|10=038|
8=FIX.4.2|9=150|35=D|34=142|49=FIXTest116|52=20151211-00:48:01.123|56=SERVER|11=151211084801-140|15=CNY|21=1|38=100|40=1|54=1|55=002480|60=20151211-00:48:01|207=XSHE|10=075|
8=FIX.4.2|9=150|35=D|34=143|49=FIXTest116|52=20151211-00:48:01.223|56=SERVER|11=151211084801-141|15=CNY|21=1|38=100|40=1|54=2|55=002482|60=20151211-00:48:01|207=XSHE|10=081|
8=FIX.4.2|9=150|35=D|34=144|49=FIXTest116|52=20151211-00:48:01.325|56=SERVER|11=151211084801-142|15=CNY|21=1|38=100|40=1|54=2|55=002490|60=20151211-00:48:01|207=XSHE|10=085|
8=FIX.4.2|9=150|35=D|34=145|49=FIXTest116|52=20151211-00:48:01.428|56=SERVER|11=151211084801-143|15=CNY|21=1|38=100|40=1|54=1|55=002503|60=20151211-00:48:01|207=XSHE|10=085|
8=FIX.4.2|9=150|35=D|34=146|49=FIXTest116|52=20151211-00:48:01.523|56=SERVER|11=151211084801-144|15=CNY|21=1|38=100|40=1|54=2|55=002508|60=20151211-00:48:01|207=XSHE|10=089|
8=FIX.4.2|9=150|35=D|34=147|49=FIXTest116|52=20151211-00:48:01.627|56=SERVER|11=151211084801-145|15=CNY|21=1|38=100|40=1|54=2|55=002551|60=20151211-00:48:01|207=XSHE|10=094|
8=FIX.4.2|9=150|35=D|34=148|49=FIXTest116|52=20151211-00:48:01.729|56=SERVER|11=151211084801-146|15=CNY|21=1|38=100|40=1|54=2|55=002557|60=20151211-00:48:01|207=XSHE|10=105|
8=FIX.4.2|9=150|35=D|34=149|49=FIXTest116|52=20151211-00:48:01.827|56=SERVER|11=151211084801-147|15=CNY|21=1|38=100|40=1|54=1|55=002574|60=20151211-00:48:01|207=XSHE|10=104|
8=FIX.4.2|9=270|35=8|34=96|49=SERVER|52=20151211-00:47:15.250|56=FIXTest116|6=0|11=151211084751-44|14=0|17=611484285|20=0|37=151211084751-44|38=100|39=8|54=2|55=000777|58=error_business: Broker return: Code:-420411065 Msg:-420411065[-150906135]股份可用数不足,尚需100|103=99|150=8|151=0|10=211|
8=FIX.4.2|9=150|35=D|34=150|49=FIXTest116|52=20151211-00:48:01.930|56=SERVER|11=151211084801-148|15=CNY|21=1|38=100|40=1|54=2|55=002588|60=20151211-00:48:01|207=XSHE|10=098|
8=FIX.4.2|9=159|35=8|34=97|49=SERVER|52=20151211-00:47:15.250|56=FIXTest116|6=0|11=151211084751-45|14=0|17=611484286|20=0|37=G1174882|38=100|39=A|54=1|55=000780|150=A|151=100|10=071|
8=FIX.4.2|9=164|35=8|34=98|49=SERVER|52=20151211-00:47:15.250|56=FIXTest116|6=0|11=151211084751-45|14=0|17=611484287|20=0|32=0|37=G1174882|38=100|39=0|54=1|55=000780|150=0|151=100|10=246|
8=FIX.4.2|9=159|35=8|34=99|49=SERVER|52=20151211-00:47:15.281|56=FIXTest116|6=0|11=151211084751-46|14=0|17=611484288|20=0|37=G1174883|38=100|39=A|54=2|55=000788|150=A|151=100|10=090|
8=FIX.4.2|9=165|35=8|34=100|49=SERVER|52=20151211-00:47:15.281|56=FIXTest116|6=0|11=151211084751-46|14=0|17=611484289|20=0|32=0|37=G1174883|38=100|39=0|54=2|55=000788|150=0|151=100|10=040|
8=FIX.4.2|9=150|35=D|34=151|49=FIXTest116|52=20151211-00:48:02.020|56=SERVER|11=151211084802-149|15=CNY|21=1|38=200|40=1|54=2|55=002595|60=20151211-00:48:02|207=XSHE|10=092|
8=FIX.4.2|9=172|35=8|34=101|49=SERVER|52=20151211-00:47:15.484|56=FIXTest116|6=0|11=151211084751-45|14=100|17=611484290|20=0|31=0|32=100|37=G1174882|38=100|39=2|54=1|55=000780|150=2|151=0|10=080|
8=FIX.4.2|9=150|35=D|34=152|49=FIXTest116|52=20151211-00:48:02.128|56=SERVER|11=151211084802-150|15=CNY|21=1|38=100|40=1|54=2|55=002646|60=20151211-00:48:02|207=XSHE|10=090|
8=FIX.4.2|9=172|35=8|34=102|49=SERVER|52=20151211-00:47:15.484|56=FIXTest116|6=0|11=151211084751-46|14=100|17=611484291|20=0|31=0|32=100|37=G1174883|38=100|39=2|54=2|55=000788|150=2|151=0|10=093|
8=FIX.4.2|9=150|35=D|34=153|49=FIXTest116|52=20151211-00:48:02.231|56=SERVER|11=151211084802-151|15=CNY|21=1|38=100|40=1|54=2|55=002648|60=20151211-00:48:02|207=XSHE|10=089|
8=FIX.4.2|9=150|35=D|34=154|49=FIXTest116|52=20151211-00:48:02.332|56=SERVER|11=151211084802-152|15=CNY|21=1|38=100|40=1|54=2|55=002662|60=20151211-00:48:02|207=XSHE|10=089|
8=FIX.4.2|9=150|35=D|34=155|49=FIXTest116|52=20151211-00:48:02.427|56=SERVER|11=151211084802-153|15=CNY|21=1|38=100|40=1|54=1|55=002665|60=20151211-00:48:02|207=XSHE|10=098|
8=FIX.4.2|9=150|35=D|34=156|49=FIXTest116|52=20151211-00:48:02.536|56=SERVER|11=151211084802-154|15=CNY|21=1|38=100|40=1|54=2|55=002672|60=20151211-00:48:02|207=XSHE|10=100|
8=FIX.4.2|9=150|35=D|34=157|49=FIXTest116|52=20151211-00:48:02.635|56=SERVER|11=151211084802-155|15=CNY|21=1|38=100|40=1|54=2|55=002678|60=20151211-00:48:02|207=XSHE|10=108|
8=FIX.4.2|9=150|35=D|34=158|49=FIXTest116|52=20151211-00:48:02.733|56=SERVER|11=151211084802-156|15=CNY|21=1|38=100|40=1|54=2|55=002681|60=20151211-00:48:02|207=XSHE|10=103|
8=FIX.4.2|9=150|35=D|34=159|49=FIXTest116|52=20151211-00:48:02.837|56=SERVER|11=151211084802-157|15=CNY|21=1|38=100|40=1|54=2|55=002698|60=20151211-00:48:02|207=XSHE|10=118|
8=FIX.4.2|9=271|35=8|34=103|49=SERVER|52=20151211-00:47:16.234|56=FIXTest116|6=0|11=151211084751-47|14=0|17=611484292|20=0|37=151211084751-47|38=100|39=8|54=2|55=000816|58=error_business: Broker return: Code:-420411065 Msg:-420411065[-150906135]股份可用数不足,尚需100|103=99|150=8|151=0|10=250|
8=FIX.4.2|9=160|35=8|34=104|49=SERVER|52=20151211-00:47:16.234|56=FIXTest116|6=0|11=151211084751-48|14=0|17=611484293|20=0|37=G1174884|38=100|39=A|54=1|55=000823|150=A|151=100|10=104|
8=FIX.4.2|9=150|35=D|34=160|49=FIXTest116|52=20151211-00:48:02.934|56=SERVER|11=151211084802-158|15=CNY|21=1|38=100|40=1|54=2|55=300033|60=20151211-00:48:02|207=XSHE|10=093|
8=FIX.4.2|9=165|35=8|34=105|49=SERVER|52=20151211-00:47:16.234|56=FIXTest116|6=0|11=151211084751-48|14=0|17=611484294|20=0|32=0|37=G1174884|38=100|39=0|54=1|55=000823|150=0|151=100|10=032|
8=FIX.4.2|9=271|35=8|34=106|49=SERVER|52=20151211-00:47:16.265|56=FIXTest116|6=0|11=151211084751-49|14=0|17=611484295|20=0|37=151211084751-49|38=100|39=8|54=2|55=000830|58=error_business: Broker return: Code:-420411065 Msg:-420411065[-150906135]股份可用数不足,尚需100|103=99|150=8|151=0|10=004|
8=FIX.4.2|9=180|35=8|34=107|49=SERVER|52=20151211-00:47:16.375|56=FIXTest116|6=10.75|11=151211084751-48|14=100|17=611484296|20=0|31=10.75|32=100|37=G1174884|38=100|39=2|54=1|55=000823|150=2|151=0|10=244|
8=FIX.4.2|9=150|35=D|34=161|49=FIXTest116|52=20151211-00:48:03.043|56=SERVER|11=151211084803-159|15=CNY|21=1|38=200|40=1|54=2|55=300039|60=20151211-00:48:03|207=XSHE|10=096|
8=FIX.4.2|9=150|35=D|34=162|49=FIXTest116|52=20151211-00:48:03.139|56=SERVER|11=151211084803-160|15=CNY|21=1|38=200|40=1|54=2|55=300043|60=20151211-00:48:03|207=XSHE|10=090|
8=FIX.4.2|9=150|35=D|34=163|49=FIXTest116|52=20151211-00:48:03.241|56=SERVER|11=151211084803-161|15=CNY|21=1|38=100|40=1|54=1|55=300072|60=20151211-00:48:03|207=XSHE|10=086|
8=FIX.4.2|9=150|35=D|34=164|49=FIXTest116|52=20151211-00:48:03.344|56=SERVER|11=151211084803-162|15=CNY|21=1|38=100|40=1|54=2|55=300115|60=20151211-00:48:03|207=XSHE|10=091|
8=FIX.4.2|9=150|35=D|34=165|49=FIXTest116|52=20151211-00:48:03.445|56=SERVER|11=151211084803-163|15=CNY|21=1|38=400|40=1|54=1|55=300134|60=20151211-00:48:03|207=XSHE|10=098|
8=FIX.4.2|9=150|35=D|34=166|49=FIXTest116|52=20151211-00:48:03.542|56=SERVER|11=151211084803-164|15=CNY|21=1|38=200|40=1|54=2|55=300147|60=20151211-00:48:03|207=XSHE|10=101|
8=FIX.4.2|9=150|35=D|34=167|49=FIXTest116|52=20151211-00:48:03.645|56=SERVER|11=151211084803-165|15=CNY|21=1|38=200|40=1|54=2|55=300199|60=20151211-00:48:03|207=XSHE|10=114|
8=FIX.4.2|9=150|35=D|34=168|49=FIXTest116|52=20151211-00:48:03.744|56=SERVER|11=151211084803-166|15=CNY|21=1|38=100|40=1|54=2|55=300202|60=20151211-00:48:03|207=XSHE|10=100|
8=FIX.4.2|9=160|35=8|34=108|49=SERVER|52=20151211-00:47:17.234|56=FIXTest116|6=0|11=151211084751-50|14=0|17=611484297|20=0|37=G1174885|38=200|39=A|54=2|55=000848|150=A|151=200|10=117|
8=FIX.4.2|9=150|35=D|34=169|49=FIXTest116|52=20151211-00:48:03.844|56=SERVER|11=151211084803-167|15=CNY|21=1|38=100|40=1|54=2|55=300244|60=20151211-00:48:03|207=XSHE|10=109|
8=FIX.4.2|9=160|35=8|34=109|49=SERVER|52=20151211-00:47:17.250|56=FIXTest116|6=0|11=151211084752-51|14=0|17=611484298|20=0|37=G1174886|38=100|39=A|54=2|55=000860|150=A|151=100|10=112|
8=FIX.4.2|9=150|35=D|34=170|49=FIXTest116|52=20151211-00:48:03.988|56=SERVER|11=151211084803-168|15=CNY|21=1|38=100|40=1|54=2|55=300253|60=20151211-00:48:03|207=XSHE|10=111|
8=FIX.4.2|9=165|35=8|34=110|49=SERVER|52=20151211-00:47:17.250|56=FIXTest116|6=0|11=151211084751-50|14=0|17=611484299|20=0|32=0|37=G1174885|38=200|39=0|54=2|55=000848|150=0|151=200|10=036|
8=FIX.4.2|9=165|35=8|34=111|49=SERVER|52=20151211-00:47:17.250|56=FIXTest116|6=0|11=151211084752-51|14=0|17=611484300|20=0|32=0|37=G1174886|38=100|39=0|54=2|55=000860|150=0|151=100|10=015|
8=FIX.4.2|9=271|35=8|34=112|49=SERVER|52=20151211-00:47:17.281|56=FIXTest116|6=0|11=151211084752-52|14=0|17=611484301|20=0|37=151211084752-52|38=100|39=8|54=2|55=000861|58=error_business: Broker return: Code:-420411065 Msg:-420411065[-150906135]股份可用数不足,尚需100|103=99|150=8|151=0|10=238|
8=FIX.4.2|9=150|35=D|34=171|49=FIXTest116|52=20151211-00:48:04.043|56=SERVER|11=151211084804-169|15=CNY|21=1|38=100|40=1|54=1|55=300267|60=20151211-00:48:04|207=XSHE|10=102|
8=FIX.4.2|9=180|35=8|34=113|49=SERVER|52=20151211-00:47:17.468|56=FIXTest116|6=16.26|11=151211084751-50|14=200|17=611484302|20=0|31=16.26|32=200|37=G1174885|38=200|39=2|54=2|55=000848|150=2|151=0|10=242|
8=FIX.4.2|9=150|35=D|34=172|49=FIXTest116|52=20151211-00:48:04.144|56=SERVER|11=151211084804-170|15=CNY|21=1|38=200|40=1|54=2|55=300273|60=20151211-00:48:04|207=XSHE|10=096|
8=FIX.4.2|9=180|35=8|34=114|49=SERVER|52=20151211-00:47:17.468|56=FIXTest116|6=19.38|11=151211084752-51|14=100|17=611484303|20=0|31=19.38|32=100|37=G1174886|38=100|39=2|54=2|55=000860|150=2|151=0|10=250|
8=FIX.4.2|9=150|35=D|34=173|49=FIXTest116|52=20151211-00:48:04.256|56=SERVER|11=151211084804-171|15=CNY|21=1|38=100|40=1|54=1|55=300274|60=20151211-00:48:04|207=XSHE|10=101|
8=FIX.4.2|9=150|35=D|34=174|49=FIXTest116|52=20151211-00:48:04.359|56=SERVER|11=151211084804-172|15=CNY|21=1|38=100|40=1|54=1|55=300291|60=20151211-00:48:04|207=XSHE|10=106|
8=FIX.4.2|9=150|35=D|34=175|49=FIXTest116|52=20151211-00:48:04.456|56=SERVER|11=151211084804-173|15=CNY|21=1|38=100|40=1|54=1|55=600004|60=20151211-00:48:04|207=XSHG|10=103|
8=FIX.4.2|9=150|35=D|34=176|49=FIXTest116|52=20151211-00:48:04.554|56=SERVER|11=151211084804-174|15=CNY|21=1|38=100|40=1|54=2|55=600006|60=20151211-00:48:04|207=XSHG|10=107|
8=FIX.4.2|9=150|35=D|34=177|49=FIXTest116|52=20151211-00:48:04.658|56=SERVER|11=151211084804-175|15=CNY|21=1|38=100|40=1|54=2|55=600017|60=20151211-00:48:04|207=XSHG|10=116|
8=FIX.4.2|9=150|35=D|34=178|49=FIXTest116|52=20151211-00:48:04.754|56=SERVER|11=151211084804-176|15=CNY|21=1|38=100|40=1|54=2|55=600021|60=20151211-00:48:04|207=XSHG|10=110|
8=FIX.4.2|9=150|35=D|34=179|49=FIXTest116|52=20151211-00:48:04.855|56=SERVER|11=151211084804-177|15=CNY|21=1|38=100|40=1|54=2|55=600039|60=20151211-00:48:04|207=XSHG|10=123|
8=FIX.4.2|9=271|35=8|34=115|49=SERVER|52=20151211-00:47:18.234|56=FIXTest116|6=0|11=151211084752-53|14=0|17=611484304|20=0|37=151211084752-53|38=100|39=8|54=2|55=000919|58=error_business: Broker return: Code:-420411065 Msg:-420411065[-150906135]股份可用数不足,尚需100|103=99|150=8|151=0|10=249|
8=FIX.4.2|9=160|35=8|34=116|49=SERVER|52=20151211-00:47:18.234|56=FIXTest116|6=0|11=151211084752-54|14=0|17=611484305|20=0|37=G1174887|38=100|39=A|54=2|55=000921|150=A|151=100|10=104|
8=FIX.4.2|9=165|35=8|34=117|49=SERVER|52=20151211-00:47:18.250|56=FIXTest116|6=0|11=151211084752-54|14=0|17=611484306|20=0|32=0|37=G1174887|38=100|39=0|54=2|55=000921|150=0|151=100|10=030|
8=FIX.4.2|9=271|35=8|34=118|49=SERVER|52=20151211-00:47:18.265|56=FIXTest116|6=0|11=151211084752-55|14=0|17=611484307|20=0|37=151211084752-55|38=200|39=8|54=2|55=000926|58=error_business: Broker return: Code:-420411065 Msg:-420411065[-150906135]股份可用数不足,尚需200|103=99|150=8|151=0|10=007|
8=FIX.4.2|9=150|35=D|34=180|49=FIXTest116|52=20151211-00:48:04.982|56=SERVER|11=151211084804-178|15=CNY|21=1|38=200|40=1|54=2|55=600056|60=20151211-00:48:04|207=XSHG|10=117|
8=FIX.4.2|9=150|35=D|34=181|49=FIXTest116|52=20151211-00:48:05.073|56=SERVER|11=151211084805-179|15=CNY|21=1|38=100|40=1|54=2|55=600058|60=20151211-00:48:05|207=XSHG|10=114|
8=FIX.4.2|9=150|35=D|34=182|49=FIXTest116|52=20151211-00:48:05.183|56=SERVER|11=151211084805-180|15=CNY|21=1|38=200|40=1|54=2|55=600059|60=20151211-00:48:05|207=XSHG|10=111|
8=FIX.4.2|9=178|35=8|34=119|49=SERVER|52=20151211-00:47:18.546|56=FIXTest116|6=9.78|11=151211084752-54|14=100|17=611484308|20=0|31=9.78|32=100|37=G1174887|38=100|39=2|54=2|55=000921|150=2|151=0|10=177|
8=FIX.4.2|9=150|35=D|34=183|49=FIXTest116|52=20151211-00:48:05.278|56=SERVER|11=151211084805-181|15=CNY|21=1|38=100|40=1|54=2|55=600062|60=20151211-00:48:05|207=XSHG|10=111|
8=FIX.4.2|9=150|35=D|34=184|49=FIXTest116|52=20151211-00:48:05.385|56=SERVER|11=151211084805-182|15=CNY|21=1|38=200|40=1|54=2|55=600064|60=20151211-00:48:05|207=XSHG|10=115|
8=FIX.4.2|9=150|35=D|34=185|49=FIXTest116|52=20151211-00:48:05.476|56=SERVER|11=151211084805-183|15=CNY|21=1|38=100|40=1|54=1|55=600067|60=20151211-00:48:05|207=XSHG|10=119|
8=FIX.4.2|9=150|35=D|34=186|49=FIXTest116|52=20151211-00:48:05.588|56=SERVER|11=151211084805-184|15=CNY|21=1|38=100|40=1|54=1|55=600073|60=20151211-00:48:05|207=XSHG|10=122|
8=FIX.4.2|9=150|35=D|34=187|49=FIXTest116|52=20151211-00:48:05.686|56=SERVER|11=151211084805-185|15=CNY|21=1|38=100|40=1|54=2|55=600079|60=20151211-00:48:05|207=XSHG|10=130|
8=FIX.4.2|9=150|35=D|34=188|49=FIXTest116|52=20151211-00:48:05.788|56=SERVER|11=151211084805-186|15=CNY|21=1|38=100|40=1|54=2|55=600088|60=20151211-00:48:05|207=XSHG|10=135|
8=FIX.4.2|9=271|35=8|34=120|49=SERVER|52=20151211-00:47:19.234|56=FIXTest116|6=0|11=151211084752-56|14=0|17=611484309|20=0|37=151211084752-56|38=200|39=8|54=2|55=000931|58=error_business: Broker return: Code:-420411065 Msg:-420411065[-150906135]股份可用数不足,尚需200|103=99|150=8|151=0|10=253|
8=FIX.4.2|9=150|35=D|34=189|49=FIXTest116|52=20151211-00:48:05.893|56=SERVER|11=151211084805-187|15=CNY|21=1|38=100|40=1|54=1|55=600112|60=20151211-00:48:05|207=XSHG|10=121|
8=FIX.4.2|9=160|35=8|34=121|49=SERVER|52=20151211-00:47:19.234|56=FIXTest116|6=0|11=151211084752-57|14=0|17=611484310|20=0|37=G1174888|38=100|39=A|54=2|55=000951|150=A|151=100|10=104|
8=FIX.4.2|9=165|35=8|34=122|49=SERVER|52=20151211-00:47:19.250|56=FIXTest116|6=0|11=151211084752-57|14=0|17=611484311|20=0|32=0|37=G1174888|38=100|39=0|54=2|55=000951|150=0|151=100|10=030|
8=FIX.4.2|9=271|35=8|34=123|49=SERVER|52=20151211-00:47:19.265|56=FIXTest116|6=0|11=151211084752-58|14=0|17=611484312|20=0|37=151211084752-58|38=100|39=8|54=2|55=000961|58=error_business: Broker return: Code:-420411065 Msg:-420411065[-150906135]股份可用数不足,尚需100|103=99|150=8|151=0|10=003|
8=FIX.4.2|9=150|35=D|34=190|49=FIXTest116|52=20151211-00:48:05.978|56=SERVER|11=151211084805-188|15=CNY|21=1|38=100|40=1|54=1|55=600122|60=20151211-00:48:05|207=XSHG|10=119|
8=FIX.4.2|9=180|35=8|34=124|49=SERVER|52=20151211-00:47:19.421|56=FIXTest116|6=16.79|11=151211084752-57|14=100|17=611484313|20=0|31=16.79|32=100|37=G1174888|38=100|39=2|54=2|55=000951|150=2|151=0|10=000|
8=FIX.4.2|9=150|35=D|34=191|49=FIXTest116|52=20151211-00:48:06.086|56=SERVER|11=151211084806-189|15=CNY|21=1|38=100|40=1|54=2|55=600125|60=20151211-00:48:06|207=XSHG|10=118|
8=FIX.4.2|9=150|35=D|34=192|49=FIXTest116|52=20151211-00:48:06.190|56=SERVER|11=151211084806-190|15=CNY|21=1|38=100|40=1|54=2|55=600132|60=20151211-00:48:06|207=XSHG|10=105|
8=FIX.4.2|9=150|35=D|34=193|49=FIXTest116|52=20151211-00:48:06.291|56=SERVER|11=151211084806-191|15=CNY|21=1|38=200|40=1|54=2|55=600138|60=20151211-00:48:06|207=XSHG|10=116|
8=FIX.4.2|9=150|35=D|34=194|49=FIXTest116|52=20151211-00:48:06.381|56=SERVER|11=151211084806-192|15=CNY|21=1|38=100|40=1|54=2|55=600141|60=20151211-00:48:06|207=XSHG|10=111|
8=FIX.4.2|9=150|35=D|34=195|49=FIXTest116|52=20151211-00:48:06.496|56=SERVER|11=151211084806-193|15=CNY|21=1|38=100|40=1|54=2|55=600143|60=20151211-00:48:06|207=XSHG|10=122|
8=FIX.4.2|9=150|35=D|34=196|49=FIXTest116|52=20151211-00:48:06.592|56=SERVER|11=151211084806-194|15=CNY|21=1|38=100|40=1|54=2|55=600160|60=20151211-00:48:06|207=XSHG|10=120|
8=FIX.4.2|9=150|35=D|34=197|49=FIXTest116|52=20151211-00:48:06.692|56=SERVER|11=151211084806-195|15=CNY|21=1|38=100|40=1|54=2|55=600161|60=20151211-00:48:06|207=XSHG|10=124|
8=FIX.4.2|9=150|35=D|34=198|49=FIXTest116|52=20151211-00:48:06.796|56=SERVER|11=151211084806-196|15=CNY|21=1|38=100|40=1|54=2|55=600169|60=20151211-00:48:06|207=XSHG|10=139|
8=FIX.4.2|9=271|35=8|34=125|49=SERVER|52=20151211-00:47:20.234|56=FIXTest116|6=0|11=151211084752-60|14=0|17=611484314|20=0|37=151211084752-60|38=300|39=8|54=2|55=000973|58=error_business: Broker return: Code:-420411065 Msg:-420411065[-150906135]股份可用数不足,尚需300|103=99|150=8|151=0|10=244|
8=FIX.4.2|9=150|35=D|34=199|49=FIXTest116|52=20151211-00:48:06.892|56=SERVER|11=151211084806-197|15=CNY|21=1|38=200|40=1|54=2|55=600171|60=20151211-00:48:06|207=XSHG|10=132|
8=FIX.4.2|9=160|35=8|34=126|49=SERVER|52=20151211-00:47:20.250|56=FIXTest116|6=0|11=151211084752-59|14=0|17=611484315|20=0|37=G1174889|38=100|39=A|54=2|55=000962|150=A|151=100|10=109|
8=FIX.4.2|9=165|35=8|34=127|49=SERVER|52=20151211-00:47:20.250|56=FIXTest116|6=0|11=151211084752-59|14=0|17=611484316|20=0|32=0|37=G1174889|38=100|39=0|54=2|55=000962|150=0|151=100|10=037|
8=FIX.4.2|9=160|35=8|34=128|49=SERVER|52=20151211-00:47:20.265|56=FIXTest116|6=0|11=151211084753-61|14=0|17=611484317|20=0|37=G1174890|38=100|39=A|54=1|55=000975|150=A|151=100|10=108|
8=FIX.4.2|9=165|35=8|34=129|49=SERVER|52=20151211-00:47:20.265|56=FIXTest116|6=0|11=151211084753-61|14=0|17=611484318|20=0|32=0|37=G1174890|38=100|39=0|54=1|55=000975|150=0|151=100|10=036|
8=FIX.4.2|9=150|35=D|34=200|49=FIXTest116|52=20151211-00:48:07.011|56=SERVER|11=151211084807-198|15=CNY|21=1|38=100|40=1|54=1|55=600176|60=20151211-00:48:07|207=XSHG|10=105|
8=FIX.4.2|9=150|35=D|34=201|49=FIXTest116|52=20151211-00:48:07.103|56=SERVER|11=151211084807-199|15=CNY|21=1|38=100|40=1|54=2|55=600180|60=20151211-00:48:07|207=XSHG|10=105|
8=FIX.4.2|9=178|35=8|34=130|49=SERVER|52=20151211-00:47:20.515|56=FIXTest116|6=12.6|11=151211084753-61|14=100|17=611484319|20=0|31=12.6|32=100|37=G1174890|38=100|39=2|54=1|55=000975|150=2|151=0|10=132|
8=FIX.4.2|9=150|35=D|34=202|49=FIXTest116|52=20151211-00:48:07.204|56=SERVER|11=151211084807-200|15=CNY|21=1|38=100|40=1|54=2|55=600183|60=20151211-00:48:07|207=XSHG|10=094|
8=FIX.4.2|9=180|35=8|34=131|49=SERVER|52=20151211-00:47:20.531|56=FIXTest116|6=14.25|11=151211084752-59|14=100|17=611484320|20=0|31=14.25|32=100|37=G1174889|38=100|39=2|54=2|55=000962|150=2|151=0|10=229|
8=FIX.4.2|9=150|35=D|34=203|49=FIXTest116|52=20151211-00:48:07.303|56=SERVER|11=151211084807-201|15=CNY|21=1|38=100|40=1|54=1|55=600198|60=20151211-00:48:07|207=XSHG|10=101|
8=FIX.4.2|9=150|35=D|34=204|49=FIXTest116|52=20151211-00:48:07.408|56=SERVER|11=151211084807-202|15=CNY|21=1|38=100|40=1|54=1|55=600199|60=20151211-00:48:07|207=XSHG|10=110|
8=FIX.4.2|9=150|35=D|34=205|49=FIXTest116|52=20151211-00:48:07.508|56=SERVER|11=151211084807-203|15=CNY|21=1|38=200|40=1|54=2|55=600201|60=20151211-00:48:07|207=XSHG|10=099|
8=FIX.4.2|9=150|35=D|34=206|49=FIXTest116|52=20151211-00:48:07.608|56=SERVER|11=151211084807-204|15=CNY|21=1|38=100|40=1|54=2|55=600240|60=20151211-00:48:07|207=XSHG|10=104|
8=FIX.4.2|9=150|35=D|34=207|49=FIXTest116|52=20151211-00:48:07.707|56=SERVER|11=151211084807-205|15=CNY|21=1|38=100|40=1|54=1|55=600251|60=20151211-00:48:07|207=XSHG|10=107|
8=FIX.4.2|9=150|35=D|34=208|49=FIXTest116|52=20151211-00:48:07.808|56=SERVER|11=151211084807-206|15=CNY|21=1|38=200|40=1|54=2|55=600260|60=20151211-00:48:07|207=XSHG|10=113|
8=FIX.4.2|9=271|35=8|34=132|49=SERVER|52=20151211-00:47:21.234|56=FIXTest116|6=0|11=151211084753-62|14=0|17=611484321|20=0|37=151211084753-62|38=200|39=8|54=2|55=000979|58=error_business: Broker return: Code:-420411065 Msg:-420411065[-150906135]股份可用数不足,尚需200|103=99|150=8|151=0|10=251|
8=FIX.4.2|9=150|35=D|34=209|49=FIXTest116|52=20151211-00:48:07.912|56=SERVER|11=151211084807-207|15=CNY|21=1|38=100|40=1|54=2|55=600261|60=20151211-00:48:07|207=XSHG|10=111|
8=FIX.4.2|9=271|35=8|34=133|49=SERVER|52=20151211-00:47:21.234|56=FIXTest116|6=0|11=151211084753-63|14=0|17=611484322|20=0|37=151211084753-63|38=100|39=8|54=2|55=001696|58=error_business: Broker return: Code:-420411065 Msg:-420411065[-150906135]股份可用数不足,尚需100|103=99|150=8|151=0|10=250|
8=FIX.4.2|9=160|35=8|34=134|49=SERVER|52=20151211-00:47:21.265|56=FIXTest116|6=0|11=151211084753-64|14=0|17=611484323|20=0|37=G1174891|38=200|39=A|54=2|55=002004|150=A|151=200|10=095|
8=FIX.4.2|9=165|35=8|34=135|49=SERVER|52=20151211-00:47:21.265|56=FIXTest116|6=0|11=151211084753-64|14=0|17=611484324|20=0|32=0|37=G1174891|38=200|39=0|54=2|55=002004|150=0|151=200|10=023|
8=FIX.4.2|9=150|35=D|34=210|49=FIXTest116|52=20151211-00:48:08.008|56=SERVER|11=151211084808-208|15=CNY|21=1|38=200|40=1|54=2|55=600267|60=20151211-00:48:08|207=XSHG|10=110|
8=FIX.4.2|9=150|35=D|34=211|49=FIXTest116|52=20151211-00:48:08.118|56=SERVER|11=151211084808-209|15=CNY|21=1|38=100|40=1|54=2|55=600270|60=20151211-00:48:08|207=XSHG|10=107|
8=FIX.4.2|9=180|35=8|34=136|49=SERVER|52=20151211-00:47:21.531|56=FIXTest116|6=14.78|11=151211084753-64|14=200|17=611484325|20=0|31=14.78|32=200|37=G1174891|38=200|39=2|54=2|55=002004|150=2|151=0|10=238|
8=FIX.4.2|9=150|35=D|34=212|49=FIXTest116|52=20151211-00:48:08.208|56=SERVER|11=151211084808-210|15=CNY|21=1|38=100|40=1|54=2|55=600280|60=20151211-00:48:08|207=XSHG|10=101|
8=FIX.4.2|9=150|35=D|34=213|49=FIXTest116|52=20151211-00:48:08.310|56=SERVER|11=151211084808-211|15=CNY|21=1|38=200|40=1|54=2|55=600284|60=20151211-00:48:08|207=XSHG|10=102|
8=FIX.4.2|9=150|35=D|34=214|49=FIXTest116|52=20151211-00:48:08.412|56=SERVER|11=151211084808-212|15=CNY|21=1|38=200|40=1|54=2|55=600289|60=20151211-00:48:08|207=XSHG|10=112|
8=FIX.4.2|9=150|35=D|34=215|49=FIXTest116|52=20151211-00:48:08.515|56=SERVER|11=151211084808-213|15=CNY|21=1|38=100|40=1|54=2|55=600292|60=20151211-00:48:08|207=XSHG|10=111|
8=FIX.4.2|9=150|35=D|34=216|49=FIXTest116|52=20151211-00:48:08.616|56=SERVER|11=151211084808-214|15=CNY|21=1|38=100|40=1|54=2|55=600298|60=20151211-00:48:08|207=XSHG|10=121|
8=FIX.4.2|9=150|35=D|34=217|49=FIXTest116|52=20151211-00:48:08.708|56=SERVER|11=151211084808-215|15=CNY|21=1|38=100|40=1|54=2|55=600320|60=20151211-00:48:08|207=XSHG|10=111|
8=FIX.4.2|9=150|35=D|34=218|49=FIXTest116|52=20151211-00:48:08.809|56=SERVER|11=151211084808-216|15=CNY|21=1|38=100|40=1|54=2|55=600329|60=20151211-00:48:08|207=XSHG|10=124|
8=FIX.4.2|9=160|35=8|34=137|49=SERVER|52=20151211-00:47:22.234|56=FIXTest116|6=0|11=151211084753-66|14=0|17=611484326|20=0|37=G1174892|38=200|39=A|54=2|55=002011|150=A|151=200|10=099|
8=FIX.4.2|9=165|35=8|34=138|49=SERVER|52=20151211-00:47:22.234|56=FIXTest116|6=0|11=151211084753-66|14=0|17=611484328|20=0|32=0|37=G1174892|38=200|39=0|54=2|55=002011|150=0|151=200|10=028|
8=FIX.4.2|9=160|35=8|34=139|49=SERVER|52=20151211-00:47:22.234|56=FIXTest116|6=0|11=151211084753-65|14=0|17=611484327|20=0|37=G1174893|38=100|39=A|54=2|55=002005|150=A|151=100|10=103|
8=FIX.4.2|9=150|35=D|34=219|49=FIXTest116|52=20151211-00:48:08.933|56=SERVER|11=151211084808-217|15=CNY|21=1|38=100|40=1|54=2|55=600335|60=20151211-00:48:08|207=XSHG|10=121|
8=FIX.4.2|9=165|35=8|34=140|49=SERVER|52=20151211-00:47:22.250|56=FIXTest116|6=0|11=151211084753-65|14=0|17=611484329|20=0|32=0|37=G1174893|38=100|39=0|54=2|55=002005|150=0|151=100|10=021|
8=FIX.4.2|9=160|35=8|34=141|49=SERVER|52=20151211-00:47:22.265|56=FIXTest116|6=0|11=151211084753-67|14=0|17=611484330|20=0|37=G1174894|38=100|39=A|54=1|55=002013|150=A|151=100|10=095|
8=FIX.4.2|9=165|35=8|34=142|49=SERVER|52=20151211-00:47:22.265|56=FIXTest116|6=0|11=151211084753-67|14=0|17=611484331|20=0|32=0|37=G1174894|38=100|39=0|54=1|55=002013|150=0|151=100|10=023|
8=FIX.4.2|9=150|35=D|34=220|49=FIXTest116|52=20151211-00:48:09.043|56=SERVER|11=151211084809-218|15=CNY|21=1|38=100|40=1|54=1|55=600337|60=20151211-00:48:09|207=XSHG|10=110|
8=FIX.4.2|9=150|35=D|34=221|49=FIXTest116|52=20151211-00:48:09.138|56=SERVER|11=151211084809-219|15=CNY|21=1|38=200|40=1|54=2|55=600351|60=20151211-00:48:09|207=XSHG|10=115|
8=FIX.4.2|9=180|35=8|34=143|49=SERVER|52=20151211-00:47:22.421|56=FIXTest116|6=14.25|11=151211084753-66|14=200|17=611484332|20=0|31=14.25|32=200|37=G1174892|38=200|39=2|54=2|55=002011|150=2|151=0|10=218|
8=FIX.4.2|9=180|35=8|34=144|49=SERVER|52=20151211-00:47:22.421|56=FIXTest116|6=20.92|11=151211084753-67|14=100|17=611484333|20=0|31=20.92|32=100|37=G1174894|38=100|39=2|54=1|55=002013|150=2|151=0|10=223|
8=FIX.4.2|9=178|35=8|34=145|49=SERVER|52=20151211-00:47:22.437|56=FIXTest116|6=8.88|11=151211084753-65|14=100|17=611484334|20=0|31=8.88|32=100|37=G1174893|38=100|39=2|54=2|55=002005|150=2|151=0|10=164|
8=FIX.4.2|9=150|35=D|34=222|49=FIXTest116|52=20151211-00:48:09.226|56=SERVER|11=151211084809-220|15=CNY|21=1|38=100|40=1|54=2|55=600366|60=20151211-00:48:09|207=XSHG|10=111|
8=FIX.4.2|9=150|35=D|34=223|49=FIXTest116|52=20151211-00:48:09.333|56=SERVER|11=151211084809-221|15=CNY|21=1|38=200|40=1|54=2|55=600376|60=20151211-00:48:09|207=XSHG|10=114|
8=FIX.4.2|9=150|35=D|34=224|49=FIXTest116|52=20151211-00:48:09.427|56=SERVER|11=151211084809-222|15=CNY|21=1|38=100|40=1|54=1|55=600387|60=20151211-00:48:09|207=XSHG|10=120|
8=FIX.4.2|9=150|35=D|34=225|49=FIXTest116|52=20151211-00:48:09.533|56=SERVER|11=151211084809-223|15=CNY|21=1|38=100|40=1|54=1|55=600392|60=20151211-00:48:09|207=XSHG|10=116|
8=FIX.4.2|9=150|35=D|34=226|49=FIXTest116|52=20151211-00:48:09.635|56=SERVER|11=151211084809-224|15=CNY|21=1|38=200|40=1|54=2|55=600395|60=20151211-00:48:09|207=XSHG|10=126|
8=FIX.4.2|9=150|35=D|34=227|49=FIXTest116|52=20151211-00:48:09.736|56=SERVER|11=151211084809-225|15=CNY|21=1|38=100|40=1|54=1|55=600397|60=20151211-00:48:09|207=XSHG|10=130|
8=FIX.4.2|9=150|35=D|34=228|49=FIXTest116|52=20151211-00:48:09.833|56=SERVER|11=151211084809-226|15=CNY|21=1|38=100|40=1|54=2|55=600403|60=20151211-00:48:09|207=XSHG|10=119|
8=FIX.4.2|9=160|35=8|34=146|49=SERVER|52=20151211-00:47:23.265|56=FIXTest116|6=0|11=151211084753-68|14=0|17=611484335|20=0|37=G1174895|38=100|39=A|54=1|55=002022|150=A|151=100|10=108|
8=FIX.4.2|9=160|35=8|34=147|49=SERVER|52=20151211-00:47:23.265|56=FIXTest116|6=0|11=151211084753-69|14=0|17=611484336|20=0|37=G1174896|38=100|39=A|54=2|55=002025|150=A|151=100|10=116|
8=FIX.4.2|9=150|35=D|34=229|49=FIXTest116|52=20151211-00:48:09.966|56=SERVER|11=151211084809-227|15=CNY|21=1|38=100|40=1|54=2|55=600409|60=20151211-00:48:09|207=XSHG|10=134|
8=FIX.4.2|9=165|35=8|34=148|49=SERVER|52=20151211-00:47:23.265|56=FIXTest116|6=0|11=151211084753-68|14=0|17=611484337|20=0|32=0|37=G1174895|38=100|39=0|54=1|55=002022|150=0|151=100|10=038|
8=FIX.4.2|9=165|35=8|34=149|49=SERVER|52=20151211-00:47:23.265|56=FIXTest116|6=0|11=151211084753-69|14=0|17=611484338|20=0|32=0|37=G1174896|38=100|39=0|54=2|55=002025|150=0|151=100|10=046|
8=FIX.4.2|9=160|35=8|34=150|49=SERVER|52=20151211-00:47:23.296|56=FIXTest116|6=0|11=151211084754-70|14=0|17=611484339|20=0|37=G1174897|38=100|39=A|54=1|55=002028|150=A|151=100|10=113|
8=FIX.4.2|9=165|35=8|34=151|49=SERVER|52=20151211-00:47:23.296|56=FIXTest116|6=0|11=151211084754-70|14=0|17=611484340|20=0|32=0|37=G1174897|38=100|39=0|54=1|55=002028|150=0|151=100|10=032|
8=FIX.4.2|9=150|35=D|34=230|49=FIXTest116|52=20151211-00:48:10.063|56=SERVER|11=151211084810-228|15=CNY|21=1|38=100|40=1|54=2|55=600416|60=20151211-00:48:10|207=XSHG|10=089|
8=FIX.4.2|9=180|35=8|34=152|49=SERVER|52=20151211-00:47:23.500|56=FIXTest116|6=28.34|11=151211084753-68|14=100|17=611484341|20=0|31=28.34|32=100|37=G1174895|38=100|39=2|54=1|55=002022|150=2|151=0|10=230|
8=FIX.4.2|9=150|35=D|34=231|49=FIXTest116|52=20151211-00:48:10.167|56=SERVER|11=151211084810-229|15=CNY|21=1|38=100|40=1|54=2|55=600418|60=20151211-00:48:10|207=XSHG|10=098|
8=FIX.4.2|9=180|35=8|34=153|49=SERVER|52=20151211-00:47:23.515|56=FIXTest116|6=25.41|11=151211084753-69|14=100|17=611484342|20=0|31=25.41|32=100|37=G1174896|38=100|39=2|54=2|55=002025|150=2|151=0|10=234|
8=FIX.4.2|9=180|35=8|34=154|49=SERVER|52=20151211-00:47:23.531|56=FIXTest116|6=15.24|11=151211084754-70|14=100|17=611484343|20=0|31=15.24|32=100|37=G1174897|38=100|39=2|54=1|55=002028|150=2|151=0|10=230|
8=FIX.4.2|9=150|35=D|34=232|49=FIXTest116|52=20151211-00:48:10.276|56=SERVER|11=151211084810-230|15=CNY|21=1|38=100|40=1|54=2|55=600422|60=20151211-00:48:10|207=XSHG|10=087|
8=FIX.4.2|9=150|35=D|34=233|49=FIXTest116|52=20151211-00:48:10.376|56=SERVER|11=151211084810-231|15=CNY|21=1|38=200|40=1|54=2|55=600425|60=20151211-00:48:10|207=XSHG|10=094|
8=FIX.4.2|9=150|35=D|34=234|49=FIXTest116|52=20151211-00:48:10.478|56=SERVER|11=151211084810-232|15=CNY|21=1|38=100|40=1|54=2|55=600433|60=20151211-00:48:10|207=XSHG|10=097|
8=FIX.4.2|9=150|35=D|34=235|49=FIXTest116|52=20151211-00:48:10.574|56=SERVER|11=151211084810-233|15=CNY|21=1|38=100|40=1|54=1|55=600435|60=20151211-00:48:10|207=XSHG|10=097|
8=FIX.4.2|9=150|35=D|34=236|49=FIXTest116|52=20151211-00:48:10.673|56=SERVER|11=151211084810-234|15=CNY|21=1|38=100|40=1|54=2|55=600436|60=20151211-00:48:10|207=XSHG|10=101|
8=FIX.4.2|9=150|35=D|34=237|49=FIXTest116|52=20151211-00:48:10.779|56=SERVER|11=151211084810-235|15=CNY|21=1|38=100|40=1|54=1|55=600446|60=20151211-00:48:10|207=XSHG|10=110|
8=FIX.4.2|9=160|35=8|34=155|49=SERVER|52=20151211-00:47:24.234|56=FIXTest116|6=0|11=151211084754-71|14=0|17=611484344|20=0|37=G1174898|38=100|39=A|54=1|55=002029|150=A|151=100|10=110|
8=FIX.4.2|9=150|35=D|34=238|49=FIXTest116|52=20151211-00:48:10.869|56=SERVER|11=151211084810-236|15=CNY|21=1|38=100|40=1|54=2|55=600456|60=20151211-00:48:10|207=XSHG|10=114|
8=FIX.4.2|9=160|35=8|34=156|49=SERVER|52=20151211-00:47:24.234|56=FIXTest116|6=0|11=151211084754-72|14=0|17=611484345|20=0|37=G1174899|38=100|39=A|54=1|55=002030|150=A|151=100|10=106|
8=FIX.4.2|9=165|35=8|34=157|49=SERVER|52=20151211-00:47:24.234|56=FIXTest116|6=0|11=151211084754-71|14=0|17=611484346|20=0|32=0|37=G1174898|38=100|39=0|54=1|55=002029|150=0|151=100|10=040|
8=FIX.4.2|9=165|35=8|34=158|49=SERVER|52=20151211-00:47:24.234|56=FIXTest116|6=0|11=151211084754-72|14=0|17=611484347|20=0|32=0|37=G1174899|38=100|39=0|54=1|55=002030|150=0|151=100|10=036|
8=FIX.4.2|9=160|35=8|34=159|49=SERVER|52=20151211-00:47:24.265|56=FIXTest116|6=0|11=151211084754-73|14=0|17=611484348|20=0|37=G1174900|38=100|39=A|54=2|55=002041|150=A|151=100|10=103|
8=FIX.4.2|9=150|35=D|34=239|49=FIXTest116|52=20151211-00:48:11.010|56=SERVER|11=151211084811-237|15=CNY|21=1|38=100|40=1|54=1|55=600458|60=20151211-00:48:11|207=XSHG|10=098|
8=FIX.4.2|9=165|35=8|34=160|49=SERVER|52=20151211-00:47:24.265|56=FIXTest116|6=0|11=151211084754-73|14=0|17=611484349|20=0|32=0|37=G1174900|38=100|39=0|54=2|55=002041|150=0|151=100|10=022|
8=FIX.4.2|9=150|35=D|34=240|49=FIXTest116|52=20151211-00:48:11.086|56=SERVER|11=151211084811-238|15=CNY|21=1|38=100|40=1|54=2|55=600468|60=20151211-00:48:11|207=XSHG|10=106|
8=FIX.4.2|9=150|35=D|34=241|49=FIXTest116|52=20151211-00:48:11.194|56=SERVER|11=151211084811-239|15=CNY|21=1|38=100|40=1|54=2|55=600481|60=20151211-00:48:11|207=XSHG|10=103|
8=FIX.4.2|9=180|35=8|34=161|49=SERVER|52=20151211-00:47:24.640|56=FIXTest116|6=40.55|11=151211084754-72|14=100|17=611484350|20=0|31=40.55|32=100|37=G1174899|38=100|39=2|54=1|55=002030|150=2|151=0|10=229|
8=FIX.4.2|9=150|35=D|34=242|49=FIXTest116|52=20151211-00:48:11.295|56=SERVER|11=151211084811-240|15=CNY|21=1|38=100|40=1|54=1|55=600482|60=20151211-00:48:11|207=XSHG|10=098|
8=FIX.4.2|9=180|35=8|34=162|49=SERVER|52=20151211-00:47:24.640|56=FIXTest116|6=11.93|11=151211084754-71|14=100|17=611484351|20=0|31=11.93|32=100|37=G1174898|38=100|39=2|54=1|55=002029|150=2|151=0|10=237|
8=FIX.4.2|9=180|35=8|34=163|49=SERVER|52=20151211-00:47:24.656|56=FIXTest116|6=15.91|11=151211084754-73|14=100|17=611484352|20=0|31=15.91|32=100|37=G1174900|38=100|39=2|54=2|55=002041|150=2|151=0|10=231|
8=FIX.4.2|9=150|35=D|34=243|49=FIXTest116|52=20151211-00:48:11.395|56=SERVER|11=151211084811-241|15=CNY|21=1|38=100|40=1|54=2|55=600487|60=20151211-00:48:11|207=XSHG|10=107|
8=FIX.4.2|9=150|35=D|34=244|49=FIXTest116|52=20151211-00:48:11.495|56=SERVER|11=151211084811-242|15=CNY|21=1|38=100|40=1|54=2|55=600496|60=20151211-00:48:11|207=XSHG|10=110|
8=FIX.4.2|9=150|35=D|34=245|49=FIXTest116|52=20151211-00:48:11.598|56=SERVER|11=151211084811-243|15=CNY|21=1|38=200|40=1|54=2|55=600498|60=20151211-00:48:11|207=XSHG|10=119|
8=FIX.4.2|9=150|35=D|34=246|49=FIXTest116|52=20151211-00:48:11.695|56=SERVER|11=151211084811-244|15=CNY|21=1|38=100|40=1|54=1|55=600500|60=20151211-00:48:11|207=XSHG|10=101|
8=FIX.4.2|9=150|35=D|34=247|49=FIXTest116|52=20151211-00:48:11.797|56=SERVER|11=151211084811-245|15=CNY|21=1|38=200|40=1|54=2|55=600507|60=20151211-00:48:11|207=XSHG|10=115|
8=FIX.4.2|9=271|35=8|34=164|49=SERVER|52=20151211-00:47:25.234|56=FIXTest116|6=0|11=151211084754-74|14=0|17=611484353|20=0|37=151211084754-74|38=100|39=8|54=2|55=002049|58=error_business: Broker return: Code:-420411065 Msg:-420411065[-150906135]股份可用数不足,尚需100|103=99|150=8|151=0|10=005|
8=FIX.4.2|9=150|35=D|34=248|49=FIXTest116|52=20151211-00:48:11.899|56=SERVER|11=151211084811-246|15=CNY|21=1|38=200|40=1|54=2|55=600509|60=20151211-00:48:11|207=XSHG|10=122|
8=FIX.4.2|9=160|35=8|34=165|49=SERVER|52=20151211-00:47:25.234|56=FIXTest116|6=0|11=151211084754-75|14=0|17=611484354|20=0|37=G1174901|38=100|39=A|54=2|55=002050|150=A|151=100|10=097|
8=FIX.4.2|9=165|35=8|34=166|49=SERVER|52=20151211-00:47:25.234|56=FIXTest116|6=0|11=151211084754-75|14=0|17=611484355|20=0|32=0|37=G1174901|38=100|39=0|54=2|55=002050|150=0|151=100|10=025|
8=FIX.4.2|9=160|35=8|34=167|49=SERVER|52=20151211-00:47:25.265|56=FIXTest116|6=0|11=151211084754-76|14=0|17=611484356|20=0|37=G1174902|38=100|39=A|54=2|55=002056|150=A|151=100|10=113|
8=FIX.4.2|9=150|35=D|34=249|49=FIXTest116|52=20151211-00:48:11.998|56=SERVER|11=151211084811-247|15=CNY|21=1|38=100|40=1|54=2|55=600510|60=20151211-00:48:11|207=XSHG|10=115|
8=FIX.4.2|9=165|35=8|34=168|49=SERVER|52=20151211-00:47:25.265|56=FIXTest116|6=0|11=151211084754-76|14=0|17=611484357|20=0|32=0|37=G1174902|38=100|39=0|54=2|55=002056|150=0|151=100|10=041|
8=FIX.4.2|9=178|35=8|34=169|49=SERVER|52=20151211-00:47:25.406|56=FIXTest116|6=9.22|11=151211084754-75|14=100|17=611484358|20=0|31=9.22|32=100|37=G1174901|38=100|39=2|54=2|55=002050|150=2|151=0|10=145|
8=FIX.4.2|9=180|35=8|34=170|49=SERVER|52=20151211-00:47:25.406|56=FIXTest116|6=24.87|11=151211084754-76|14=100|17=611484359|20=0|31=24.87|32=100|37=G1174902|38=100|39=2|54=2|55=002056|150=2|151=0|10=251|
8=FIX.4.2|9=150|35=D|34=250|49=FIXTest116|52=20151211-00:48:12.114|56=SERVER|11=151211084812-248|15=CNY|21=1|38=100|40=1|54=2|55=600511|60=20151211-00:48:12|207=XSHG|10=092|
8=FIX.4.2|9=150|35=D|34=251|49=FIXTest116|52=20151211-00:48:12.201|56=SERVER|11=151211084812-249|15=CNY|21=1|38=200|40=1|54=2|55=600521|60=20151211-00:48:12|207=XSHG|10=093|
8=FIX.4.2|9=150|35=D|34=252|49=FIXTest116|52=20151211-00:48:12.305|56=SERVER|11=151211084812-250|15=CNY|21=1|38=100|40=1|54=2|55=600536|60=20151211-00:48:12|207=XSHG|10=096|
8=FIX.4.2|9=150|35=D|34=253|49=FIXTest116|52=20151211-00:48:12.403|56=SERVER|11=151211084812-251|15=CNY|21=1|38=100|40=1|54=2|55=600537|60=20151211-00:48:12|207=XSHG|10=098|
8=FIX.4.2|9=150|35=D|34=254|49=FIXTest116|52=20151211-00:48:12.509|56=SERVER|11=151211084812-252|15=CNY|21=1|38=200|40=1|54=2|55=600545|60=20151211-00:48:12|207=XSHG|10=107|
8=FIX.4.2|9=150|35=D|34=255|49=FIXTest116|52=20151211-00:48:12.604|56=SERVER|11=151211084812-253|15=CNY|21=1|38=100|40=1|54=1|55=600546|60=20151211-00:48:12|207=XSHG|10=104|
8=FIX.4.2|9=150|35=D|34=256|49=FIXTest116|52=20151211-00:48:12.705|56=SERVER|11=151211084812-254|15=CNY|21=1|38=100|40=1|54=2|55=600551|60=20151211-00:48:12|207=XSHG|10=105|
8=FIX.4.2|9=150|35=D|34=257|49=FIXTest116|52=20151211-00:48:12.806|56=SERVER|11=151211084812-255|15=CNY|21=1|38=100|40=1|54=1|55=600557|60=20151211-00:48:12|207=XSHG|10=114|
8=FIX.4.2|9=160|35=8|34=171|49=SERVER|52=20151211-00:47:26.250|56=FIXTest116|6=0|11=151211084754-77|14=0|17=611484360|20=0|37=G1174904|38=100|39=A|54=1|55=002063|150=A|151=100|10=098|
8=FIX.4.2|9=160|35=8|34=172|49=SERVER|52=20151211-00:47:26.250|56=FIXTest116|6=0|11=151211084754-78|14=0|17=611484361|20=0|37=G1174903|38=100|39=A|54=2|55=002064|150=A|151=100|10=102|
8=FIX.4.2|9=150|35=D|34=258|49=FIXTest116|52=20151211-00:48:12.940|56=SERVER|11=151211084812-256|15=CNY|21=1|38=100|40=1|54=2|55=600566|60=20151211-00:48:12|207=XSHG|10=116|
8=FIX.4.2|9=165|35=8|34=173|49=SERVER|52=20151211-00:47:26.250|56=FIXTest116|6=0|11=151211084754-77|14=0|17=611484362|20=0|32=0|37=G1174904|38=100|39=0|54=1|55=002063|150=0|151=100|10=028|
8=FIX.4.2|9=165|35=8|34=174|49=SERVER|52=20151211-00:47:26.250|56=FIXTest116|6=0|11=151211084754-78|14=0|17=611484363|20=0|32=0|37=G1174903|38=100|39=0|54=2|55=002064|150=0|151=100|10=032|
8=FIX.4.2|9=160|35=8|34=175|49=SERVER|52=20151211-00:47:26.281|56=FIXTest116|6=0|11=151211084754-79|14=0|17=611484364|20=0|37=G1174905|38=100|39=A|54=1|55=002069|150=A|151=100|10=119|
8=FIX.4.2|9=165|35=8|34=176|49=SERVER|52=20151211-00:47:26.281|56=FIXTest116|6=0|11=151211084754-79|14=0|17=611484365|20=0|32=0|37=G1174905|38=100|39=0|54=1|55=002069|150=0|151=100|10=047|
8=FIX.4.2|9=150|35=D|34=259|49=FIXTest116|52=20151211-00:48:13.028|56=SERVER|11=151211084813-257|15=CNY|21=1|38=200|40=1|54=2|55=600572|60=20151211-00:48:13|207=XSHG|10=116|
8=FIX.4.2|9=178|35=8|34=177|49=SERVER|52=20151211-00:47:26.437|56=FIXTest116|6=6.47|11=151211084754-78|14=100|17=611484366|20=0|31=6.47|32=100|37=G1174903|38=100|39=2|54=2|55=002064|150=2|151=0|10=166|
8=FIX.4.2|9=178|35=8|34=178|49=SERVER|52=20151211-00:47:26.453|56=FIXTest116|6=13.3|11=151211084754-79|14=100|17=611484367|20=0|31=13.3|32=100|37=G1174905|38=100|39=2|54=1|55=002069|150=2|151=0|10=153|
8=FIX.4.2|9=180|35=8|34=179|49=SERVER|52=20151211-00:47:26.453|56=FIXTest116|6=23.77|11=151211084754-77|14=100|17=611484368|20=0|31=23.77|32=100|37=G1174904|38=100|39=2|54=1|55=002063|150=2|151=0|10=003|
8=FIX.4.2|9=150|35=D|34=260|49=FIXTest116|52=20151211-00:48:13.136|56=SERVER|11=151211084813-258|15=CNY|21=1|38=100|40=1|54=2|55=600575|60=20151211-00:48:13|207=XSHG|10=111|
8=FIX.4.2|9=150|35=D|34=261|49=FIXTest116|52=20151211-00:48:13.241|56=SERVER|11=151211084813-259|15=CNY|21=1|38=200|40=1|54=2|55=600580|60=20151211-00:48:13|207=XSHG|10=107|
8=FIX.4.2|9=150|35=D|34=262|49=FIXTest116|52=20151211-00:48:13.340|56=SERVER|11=151211084813-260|15=CNY|21=1|38=100|40=1|54=1|55=600586|60=20151211-00:48:13|207=XSHG|10=104|
8=FIX.4.2|9=150|35=D|34=263|49=FIXTest116|52=20151211-00:48:13.437|56=SERVER|11=151211084813-261|15=CNY|21=1|38=100|40=1|54=2|55=600587|60=20151211-00:48:13|207=XSHG|10=115|
8=FIX.4.2|9=150|35=D|34=264|49=FIXTest116|52=20151211-00:48:13.544|56=SERVER|11=151211084813-262|15=CNY|21=1|38=200|40=1|54=2|55=600596|60=20151211-00:48:13|207=XSHG|10=117|
8=FIX.4.2|9=150|35=D|34=265|49=FIXTest116|52=20151211-00:48:13.644|56=SERVER|11=151211084813-263|15=CNY|21=1|38=100|40=1|54=2|55=600601|60=20151211-00:48:13|207=XSHG|10=106|
8=FIX.4.2|9=150|35=D|34=266|49=FIXTest116|52=20151211-00:48:13.741|56=SERVER|11=151211084813-264|15=CNY|21=1|38=100|40=1|54=2|55=600617|60=20151211-00:48:13|207=XSHG|10=113|
8=FIX.4.2|9=150|35=D|34=267|49=FIXTest116|52=20151211-00:48:13.842|56=SERVER|11=151211084813-265|15=CNY|21=1|38=100|40=1|54=2|55=600618|60=20151211-00:48:13|207=XSHG|10=118|
8=FIX.4.2|9=160|35=8|34=180|49=SERVER|52=20151211-00:47:27.250|56=FIXTest116|6=0|11=151211084754-80|14=0|17=611484369|20=0|37=G1174907|38=100|39=A|54=1|55=002078|150=A|151=100|10=111|
8=FIX.4.2|9=160|35=8|34=181|49=SERVER|52=20151211-00:47:27.250|56=FIXTest116|6=0|11=151211084755-81|14=0|17=611484370|20=0|37=G1174906|38=100|39=A|54=2|55=002092|150=A|151=100|10=102|
8=FIX.4.2|9=150|35=D|34=268|49=FIXTest116|52=20151211-00:48:13.971|56=SERVER|11=151211084813-266|15=CNY|21=1|38=100|40=1|54=1|55=600628|60=20151211-00:48:13|207=XSHG|10=123|
8=FIX.4.2|9=165|35=8|34=182|49=SERVER|52=20151211-00:47:27.250|56=FIXTest116|6=0|11=151211084754-80|14=0|17=611484371|20=0|32=0|37=G1174907|38=100|39=0|54=1|55=002078|150=0|151=100|10=032|
8=FIX.4.2|9=165|35=8|34=183|49=SERVER|52=20151211-00:47:27.250|56=FIXTest116|6=0|11=151211084755-81|14=0|17=611484372|20=0|32=0|37=G1174906|38=100|39=0|54=2|55=002092|150=0|151=100|10=032|
8=FIX.4.2|9=160|35=8|34=184|49=SERVER|52=20151211-00:47:27.281|56=FIXTest116|6=0|11=151211084755-82|14=0|17=611484373|20=0|37=G1174908|38=100|39=A|54=1|55=002093|150=A|151=100|10=115|
8=FIX.4.2|9=165|35=8|34=185|49=SERVER|52=20151211-00:47:27.281|56=FIXTest116|6=0|11=151211084755-82|14=0|17=611484374|20=0|32=0|37=G1174908|38=100|39=0|54=1|55=002093|150=0|151=100|10=043|
8=FIX.4.2|9=150|35=D|34=269|49=FIXTest116|52=20151211-00:48:14.057|56=SERVER|11=151211084814-267|15=CNY|21=1|38=100|40=1|54=2|55=600636|60=20151211-00:48:14|207=XSHG|10=123|
8=FIX.4.2|9=150|35=D|34=270|49=FIXTest116|52=20151211-00:48:14.155|56=SERVER|11=151211084814-268|15=CNY|21=1|38=100|40=1|54=2|55=600639|60=20151211-00:48:14|207=XSHG|10=118|
8=FIX.4.2|9=178|35=8|34=186|49=SERVER|52=20151211-00:47:27.531|56=FIXTest116|6=9.78|11=151211084755-81|14=100|17=611484375|20=0|31=9.78|32=100|37=G1174906|38=100|39=2|54=2|55=002092|150=2|151=0|10=175|
8=FIX.4.2|9=178|35=8|34=187|49=SERVER|52=20151211-00:47:27.546|56=FIXTest116|6=5.34|11=151211084754-80|14=100|17=611484376|20=0|31=5.34|32=100|37=G1174907|38=100|39=2|54=1|55=002078|150=2|151=0|10=161|
8=FIX.4.2|9=180|35=8|34=188|49=SERVER|52=20151211-00:47:27.546|56=FIXTest116|6=13.04|11=151211084755-82|14=100|17=611484377|20=0|31=13.04|32=100|37=G1174908|38=100|39=2|54=1|55=002093|150=2|151=0|10=245|
8=FIX.4.2|9=150|35=D|34=271|49=FIXTest116|52=20151211-00:48:14.253|56=SERVER|11=151211084814-269|15=CNY|21=1|38=100|40=1|54=2|55=600640|60=20151211-00:48:14|207=XSHG|10=111|
8=FIX.4.2|9=150|35=D|34=272|49=FIXTest116|52=20151211-00:48:14.354|56=SERVER|11=151211084814-270|15=CNY|21=1|38=100|40=1|54=2|55=600643|60=20151211-00:48:14|207=XSHG|10=109|
8=FIX.4.2|9=150|35=D|34=273|49=FIXTest116|52=20151211-00:48:14.455|56=SERVER|11=151211084814-271|15=CNY|21=1|38=100|40=1|54=1|55=600655|60=20151211-00:48:14|207=XSHG|10=115|
8=FIX.4.2|9=150|35=D|34=274|49=FIXTest116|52=20151211-00:48:14.558|56=SERVER|11=151211084814-272|15=CNY|21=1|38=200|40=1|54=2|55=600673|60=20151211-00:48:14|207=XSHG|10=123|
8=FIX.4.2|9=150|35=D|34=275|49=FIXTest116|52=20151211-00:48:14.657|56=SERVER|11=151211084814-273|15=CNY|21=1|38=100|40=1|54=2|55=600685|60=20151211-00:48:14|207=XSHG|10=127|
8=FIX.4.2|9=150|35=D|34=276|49=FIXTest116|52=20151211-00:48:14.757|56=SERVER|11=151211084814-274|15=CNY|21=1|38=100|40=1|54=2|55=600694|60=20151211-00:48:14|207=XSHG|10=130|
8=FIX.4.2|9=150|35=D|34=277|49=FIXTest116|52=20151211-00:48:14.863|56=SERVER|11=151211084814-275|15=CNY|21=1|38=100|40=1|54=2|55=600702|60=20151211-00:48:14|207=XSHG|10=120|
8=FIX.4.2|9=271|35=8|34=189|49=SERVER|52=20151211-00:47:28.234|56=FIXTest116|6=0|11=151211084755-83|14=0|17=611484378|20=0|37=151211084755-83|38=100|39=8|54=2|55=002118|58=error_business: Broker return: Code:-420411065 Msg:-420411065[-150906135]股份可用数不足,尚需100|103=99|150=8|151=0|10=021|
8=FIX.4.2|9=160|35=8|34=190|49=SERVER|52=20151211-00:47:28.234|56=FIXTest116|6=0|11=151211084755-84|14=0|17=611484379|20=0|37=G1174909|38=100|39=A|54=2|55=002128|150=A|151=100|10=120|
8=FIX.4.2|9=165|35=8|34=191|49=SERVER|52=20151211-00:47:28.234|56=FIXTest116|6=0|11=151211084755-84|14=0|17=611484380|20=0|32=0|37=G1174909|38=100|39=0|54=2|55=002128|150=0|151=100|10=039|
8=FIX.4.2|9=160|35=8|34=192|49=SERVER|52=20151211-00:47:28.265|56=FIXTest116|6=0|11=151211084755-85|14=0|17=611484381|20=0|37=G1174910|38=100|39=A|54=2|55=002140|150=A|151=100|10=106|
8=FIX.4.2|9=150|35=D|34=278|49=FIXTest116|52=20151211-00:48:14.998|56=SERVER|11=151211084814-276|15=CNY|21=1|38=100|40=1|54=1|55=600737|60=20151211-00:48:14|207=XSHG|10=138|
8=FIX.4.2|9=165|35=8|34=193|49=SERVER|52=20151211-00:47:28.265|56=FIXTest116|6=0|11=151211084755-85|14=0|17=611484382|20=0|32=0|37=G1174910|38=100|39=0|54=2|55=002140|150=0|151=100|10=034|
8=FIX.4.2|9=178|35=8|34=194|49=SERVER|52=20151211-00:47:28.406|56=FIXTest116|6=9.16|11=151211084755-84|14=100|17=611484383|20=0|31=9.16|32=100|37=G1174909|38=100|39=2|54=2|55=002128|150=2|151=0|10=165|
8=FIX.4.2|9=178|35=8|34=195|49=SERVER|52=20151211-00:47:28.406|56=FIXTest116|6=20.3|11=151211084755-85|14=100|17=611484384|20=0|31=20.3|32=100|37=G1174910|38=100|39=2|54=2|55=002140|150=2|151=0|10=132|
8=FIX.4.2|9=150|35=D|34=279|49=FIXTest116|52=20151211-00:48:15.097|56=SERVER|11=151211084815-277|15=CNY|21=1|38=200|40=1|54=2|55=600743|60=20151211-00:48:15|207=XSHG|10=132|
8=FIX.4.2|9=150|35=D|34=280|49=FIXTest116|52=20151211-00:48:15.204|56=SERVER|11=151211084815-278|15=CNY|21=1|38=100|40=1|54=1|55=600748|60=20151211-00:48:15|207=XSHG|10=118|
8=FIX.4.2|9=150|35=D|34=281|49=FIXTest116|52=20151211-00:48:15.307|56=SERVER|11=151211084815-279|15=CNY|21=1|38=100|40=1|54=2|55=600750|60=20151211-00:48:15|207=XSHG|10=118|
8=FIX.4.2|9=150|35=D|34=282|49=FIXTest116|52=20151211-00:48:15.404|56=SERVER|11=151211084815-280|15=CNY|21=1|38=100|40=1|54=2|55=600754|60=20151211-00:48:15|207=XSHG|10=113|
8=FIX.4.2|9=150|35=D|34=283|49=FIXTest116|52=20151211-00:48:15.523|56=SERVER|11=151211084815-281|15=CNY|21=1|38=200|40=1|54=2|55=600755|60=20151211-00:48:15|207=XSHG|10=119|
8=FIX.4.2|9=150|35=D|34=284|49=FIXTest116|52=20151211-00:48:15.606|56=SERVER|11=151211084815-282|15=CNY|21=1|38=200|40=1|54=2|55=600757|60=20151211-00:48:15|207=XSHG|10=125|
8=FIX.4.2|9=150|35=D|34=285|49=FIXTest116|52=20151211-00:48:15.705|56=SERVER|11=151211084815-283|15=CNY|21=1|38=100|40=1|54=1|55=600761|60=20151211-00:48:15|207=XSHG|10=120|
8=FIX.4.2|9=150|35=D|34=286|49=FIXTest116|52=20151211-00:48:15.809|56=SERVER|11=151211084815-284|15=CNY|21=1|38=100|40=1|54=1|55=600765|60=20151211-00:48:15|207=XSHG|10=131|
8=FIX.4.2|9=271|35=8|34=196|49=SERVER|52=20151211-00:47:29.234|56=FIXTest116|6=0|11=151211084755-87|14=0|17=611484385|20=0|37=151211084755-87|38=200|39=8|54=2|55=002181|58=error_business: Broker return: Code:-420411065 Msg:-420411065[-150906135]股份可用数不足,尚需200|103=99|150=8|151=0|10=028|
8=FIX.4.2|9=150|35=D|34=287|49=FIXTest116|52=20151211-00:48:15.906|56=SERVER|11=151211084815-285|15=CNY|21=1|38=100|40=1|54=2|55=600773|60=20151211-00:48:15|207=XSHG|10=131|
8=FIX.4.2|9=160|35=8|34=197|49=SERVER|52=20151211-00:47:29.234|56=FIXTest116|6=0|11=151211084755-86|14=0|17=611484386|20=0|37=G1174911|38=100|39=A|54=2|55=002179|150=A|151=100|10=127|
8=FIX.4.2|9=165|35=8|34=198|49=SERVER|52=20151211-00:47:29.234|56=FIXTest116|6=0|11=151211084755-86|14=0|17=611484387|20=0|32=0|37=G1174911|38=100|39=0|54=2|55=002179|150=0|151=100|10=055|
8=FIX.4.2|9=160|35=8|34=199|49=SERVER|52=20151211-00:47:29.265|56=FIXTest116|6=0|11=151211084755-88|14=0|17=611484388|20=0|37=G1174912|38=100|39=A|54=1|55=002183|150=A|151=100|10=132|
8=FIX.4.2|9=165|35=8|34=200|49=SERVER|52=20151211-00:47:29.265|56=FIXTest116|6=0|11=151211084755-88|14=0|17=611484389|20=0|32=0|37=G1174912|38=100|39=0|54=1|55=002183|150=0|151=100|10=042|
8=FIX.4.2|9=178|35=8|34=201|49=SERVER|52=20151211-00:47:29.375|56=FIXTest116|6=38.3|11=151211084755-86|14=100|17=611484390|20=0|31=38.3|32=100|37=G1174911|38=100|39=2|54=2|55=002179|150=2|151=0|10=155|
8=FIX.4.2|9=150|35=D|34=288|49=FIXTest116|52=20151211-00:48:16.032|56=SERVER|11=151211084816-286|15=CNY|21=1|38=100|40=1|54=1|55=600776|60=20151211-00:48:16|207=XSHG|10=128|
8=FIX.4.2|9=180|35=8|34=202|49=SERVER|52=20151211-00:47:29.390|56=FIXTest116|6=42.33|11=151211084755-88|14=100|17=611484391|20=0|31=42.33|32=100|37=G1174912|38=100|39=2|54=1|55=002183|150=2|151=0|10=236|
8=FIX.4.2|9=150|35=D|34=289|49=FIXTest116|52=20151211-00:48:16.142|56=SERVER|11=151211084816-287|15=CNY|21=1|38=100|40=1|54=1|55=600780|60=20151211-00:48:16|207=XSHG|10=127|
8=FIX.4.2|9=150|35=D|34=290|49=FIXTest116|52=20151211-00:48:16.240|56=SERVER|11=151211084816-288|15=CNY|21=1|38=100|40=1|54=2|55=600787|60=20151211-00:48:16|207=XSHG|10=127|
8=FIX.4.2|9=150|35=D|34=291|49=FIXTest116|52=20151211-00:48:16.340|56=SERVER|11=151211084816-289|15=CNY|21=1|38=200|40=1|54=2|55=600790|60=20151211-00:48:16|207=XSHG|10=125|
8=FIX.4.2|9=150|35=D|34=292|49=FIXTest116|52=20151211-00:48:16.445|56=SERVER|11=151211084816-290|15=CNY|21=1|38=100|40=1|54=2|55=600797|60=20151211-00:48:16|207=XSHG|10=130|
8=FIX.4.2|9=150|35=D|34=293|49=FIXTest116|52=20151211-00:48:16.543|56=SERVER|11=151211084816-291|15=CNY|21=1|38=100|40=1|54=2|55=600801|60=20151211-00:48:16|207=XSHG|10=117|
8=FIX.4.2|9=150|35=D|34=294|49=FIXTest116|52=20151211-00:48:16.646|56=SERVER|11=151211084816-292|15=CNY|21=1|38=100|40=1|54=2|55=600803|60=20151211-00:48:16|207=XSHG|10=125|
8=FIX.4.2|9=150|35=D|34=295|49=FIXTest116|52=20151211-00:48:16.736|56=SERVER|11=151211084816-293|15=CNY|21=1|38=200|40=1|54=2|55=600808|60=20151211-00:48:16|207=XSHG|10=133|
8=FIX.4.2|9=150|35=D|34=296|49=FIXTest116|52=20151211-00:48:16.845|56=SERVER|11=151211084816-294|15=CNY|21=1|38=100|40=1|54=2|55=600812|60=20151211-00:48:16|207=XSHG|10=130|
8=FIX.4.2|9=160|35=8|34=203|49=SERVER|52=20151211-00:47:30.234|56=FIXTest116|6=0|11=151211084755-89|14=0|17=611484392|20=0|37=G1174913|38=100|39=A|54=2|55=002190|150=A|151=100|10=102|
8=FIX.4.2|9=165|35=8|34=204|49=SERVER|52=20151211-00:47:30.234|56=FIXTest116|6=0|11=151211084755-89|14=0|17=611484393|20=0|32=0|37=G1174913|38=100|39=0|54=2|55=002190|150=0|151=100|10=030|
8=FIX.4.2|9=160|35=8|34=205|49=SERVER|52=20151211-00:47:30.234|56=FIXTest116|6=0|11=151211084756-90|14=0|17=611484394|20=0|37=G1174914|38=100|39=A|54=2|55=002194|150=A|151=100|10=104|
8=FIX.4.2|9=165|35=8|34=206|49=SERVER|52=20151211-00:47:30.250|56=FIXTest116|6=0|11=151211084756-90|14=0|17=611484395|20=0|32=0|37=G1174914|38=100|39=0|54=2|55=002194|150=0|151=100|10=030|
8=FIX.4.2|9=271|35=8|34=207|49=SERVER|52=20151211-00:47:30.265|56=FIXTest116|6=0|11=151211084756-91|14=0|17=611484396|20=0|37=151211084756-91|38=100|39=8|54=2|55=002195|58=error_business: Broker return: Code:-420411065 Msg:-420411065[-150906135]股份可用数不足,尚需100|103=99|150=8|151=0|10=014|
8=FIX.4.2|9=150|35=D|34=297|49=FIXTest116|52=20151211-00:48:16.950|56=SERVER|11=151211084816-295|15=CNY|21=1|38=200|40=1|54=2|55=600823|60=20151211-00:48:16|207=XSHG|10=132|
8=FIX.4.2|9=150|35=D|34=298|49=FIXTest116|52=20151211-00:48:17.053|56=SERVER|11=151211084817-296|15=CNY|21=1|38=200|40=1|54=2|55=600825|60=20151211-00:48:17|207=XSHG|10=133|
8=FIX.4.2|9=180|35=8|34=208|49=SERVER|52=20151211-00:47:30.437|56=FIXTest116|6=41.29|11=151211084755-89|14=100|17=611484397|20=0|31=41.29|32=100|37=G1174913|38=100|39=2|54=2|55=002190|150=2|151=0|10=251|
8=FIX.4.2|9=180|35=8|34=209|49=SERVER|52=20151211-00:47:30.437|56=FIXTest116|6=16.58|11=151211084756-90|14=100|17=611484398|20=0|31=16.58|32=100|37=G1174914|38=100|39=2|54=2|55=002194|150=2|151=0|10=003|
8=FIX.4.2|9=150|35=D|34=299|49=FIXTest116|52=20151211-00:48:17.151|56=SERVER|11=151211084817-297|15=CNY|21=1|38=100|40=1|54=2|55=600826|60=20151211-00:48:17|207=XSHG|10=134|
8=FIX.4.2|9=150|35=D|34=300|49=FIXTest116|52=20151211-00:48:17.247|56=SERVER|11=151211084817-298|15=CNY|21=1|38=100|40=1|54=1|55=600831|60=20151211-00:48:17|207=XSHG|10=119|
8=FIX.4.2|9=150|35=D|34=301|49=FIXTest116|52=20151211-00:48:17.349|56=SERVER|11=151211084817-299|15=CNY|21=1|38=100|40=1|54=2|55=600835|60=20151211-00:48:17|207=XSHG|10=129|
8=FIX.4.2|9=150|35=D|34=302|49=FIXTest116|52=20151211-00:48:17.452|56=SERVER|11=151211084817-300|15=CNY|21=1|38=100|40=1|54=2|55=600859|60=20151211-00:48:17|207=XSHG|10=114|
8=FIX.4.2|9=150|35=D|34=303|49=FIXTest116|52=20151211-00:48:17.555|56=SERVER|11=151211084817-301|15=CNY|21=1|38=100|40=1|54=2|55=600872|60=20151211-00:48:17|207=XSHG|10=115|
