8=FIX.4.2|9=127|35=A|34=1|49=1100GXQHDJDL|52=20141120-11:21:22.765|56=GSFIX|96=T:110002378162,110062378162:46d5a479427d55eb:|98=2|108=60|141=Y|10=200|8=FIX.4.2|9=60|35=5|34=2|49=1100GXQHDJDL|52=20141120-11:21:23.623|56=GSFIX|10=095|