8=FIX.4.2|9=116|35=A|34=1|49=FIXTest116|52=20151228-06:52:58.327|56=SERVER|96=T:110000000572,110050000572:135790:|98=0|108=60|141=Y|10=022|