8=FIX.4.2|9=116|35=A|34=1|49=FIXTest116|52=20160104-02:17:00.053|56=SERVER|96=T:110000000572,110050000572:135790:|98=0|108=60|141=Y|10=251|8=FIX.4.2|9=156|35=D|34=2|49=FIXTest116|52=20160104-02:17:16.532|56=SERVER|11=160104101716-0|15=CNY|21=1|38=2200|40=2|44=24.62|54=2|55=600859|60=20160104-02:17:16|207=XSHG|10=120|8=FIX.4.2|9=155|35=D|34=3|49=FIXTest116|52=20160104-02:17:16.619|56=SERVER|11=160104101716-1|15=CNY|21=1|38=6800|40=2|44=5.88|54=2|55=000767|60=20160104-02:17:16|207=XSHE|10=086|