8=FIX.4.2|9=115|35=A|34=1|49=FIXTest22|52=20151210-09:34:48.512|56=SERVER|96=T:110000000572,110050000572:135790:|98=0|108=60|141=Y|10=214|