8=FIX.4.2|9=115|35=A|34=1|49=1100DJLHDC1H8|52=20151225-01:36:32.773|56=GSFIX|96=Z:110099100077:a4d75795b94c6e6a:|98=2|108=60|141=Y|10=130|8=FIX.4.2|9=149|35=D|34=2|49=1100DJLHDC1H8|52=20151225-01:36:40.456|56=GSFIX|11=151225093640-0|15=CNY|21=1|38=3500|40=1|54=1|55=000035|60=20151225-01:36:40|207=XSHE|10=124|8=FIX.4.2|9=149|35=D|34=3|49=1100DJLHDC1H8|52=20151225-01:36:40.568|56=GSFIX|11=151225093640-1|15=CNY|21=1|38=2000|40=1|54=1|55=000411|60=20151225-01:36:40|207=XSHE|10=122|8=FIX.4.2|9=149|35=D|34=4|49=1100DJLHDC1H8|52=20151225-01:36:40.647|56=GSFIX|11=151225093640-2|15=CNY|21=1|38=4500|40=1|54=1|55=000595|60=20151225-01:36:40|207=XSHE|10=142|8=FIX.4.2|9=149|35=D|34=5|49=1100DJLHDC1H8|52=20151225-01:36:40.745|56=GSFIX|11=151225093640-3|15=CNY|21=1|38=5500|40=1|54=1|55=000597|60=20151225-01:36:40|207=XSHE|10=146|8=FIX.4.2|9=149|35=D|34=6|49=1100DJLHDC1H8|52=20151225-01:36:40.848|56=GSFIX|11=151225093640-4|15=CNY|21=1|38=6000|40=1|54=1|55=000606|60=20151225-01:36:40|207=XSHE|10=139|8=FIX.4.2|9=149|35=D|34=7|49=1100DJLHDC1H8|52=20151225-01:36:40.945|56=GSFIX|11=151225093640-5|15=CNY|21=1|38=2500|40=1|54=1|55=000711|60=20151225-01:36:40|207=XSHE|10=137|8=FIX.4.2|9=149|35=D|34=8|49=1100DJLHDC1H8|52=20151225-01:36:41.051|56=GSFIX|11=151225093641-6|15=CNY|21=1|38=3500|40=1|54=1|55=000779|60=20151225-01:36:41|207=XSHE|10=145|8=FIX.4.2|9=149|35=D|34=9|49=1100DJLHDC1H8|52=20151225-01:36:41.168|56=GSFIX|11=151225093641-7|15=CNY|21=1|38=2500|40=1|54=1|55=000836|60=20151225-01:36:41|207=XSHE|10=149|8=FIX.4.2|9=150|35=D|34=10|49=1100DJLHDC1H8|52=20151225-01:36:41.261|56=GSFIX|11=151225093641-8|15=CNY|21=1|38=3000|40=1|54=1|55=000953|60=20151225-01:36:41|207=XSHE|10=172|8=FIX.4.2|9=150|35=D|34=11|49=1100DJLHDC1H8|52=20151225-01:36:41.361|56=GSFIX|11=151225093641-9|15=CNY|21=1|38=4500|40=1|54=1|55=002077|60=20151225-01:36:41|207=XSHE|10=180|8=FIX.4.2|9=151|35=D|34=12|49=1100DJLHDC1H8|52=20151225-01:36:41.465|56=GSFIX|11=151225093641-10|15=CNY|21=1|38=5000|40=1|54=1|55=002102|60=20151225-01:36:41|207=XSHE|10=212|8=FIX.4.2|9=151|35=D|34=13|49=1100DJLHDC1H8|52=20151225-01:36:41.561|56=GSFIX|11=151225093641-11|15=CNY|21=1|38=3500|40=1|54=1|55=002131|60=20151225-01:36:41|207=XSHE|10=216|8=FIX.4.2|9=151|35=D|34=14|49=1100DJLHDC1H8|52=20151225-01:36:41.670|56=GSFIX|11=151225093641-12|15=CNY|21=1|38=3500|40=1|54=1|55=002201|60=20151225-01:36:41|207=XSHE|10=217|8=FIX.4.2|9=151|35=D|34=15|49=1100DJLHDC1H8|52=20151225-01:36:41.767|56=GSFIX|11=151225093641-13|15=CNY|21=1|38=1500|40=1|54=1|55=002205|60=20151225-01:36:41|207=XSHE|10=228|8=FIX.4.2|9=151|35=D|34=16|49=1100DJLHDC1H8|52=20151225-01:36:41.880|56=GSFIX|11=151225093641-14|15=CNY|21=1|38=2500|40=1|54=1|55=002209|60=20151225-01:36:41|207=XSHE|10=231|8=FIX.4.2|9=151|35=D|34=17|49=1100DJLHDC1H8|52=20151225-01:36:41.969|56=GSFIX|11=151225093641-15|15=CNY|21=1|38=3000|40=1|54=1|55=002251|60=20151225-01:36:41|207=XSHE|10=234|8=FIX.4.2|9=151|35=D|34=18|49=1100DJLHDC1H8|52=20151225-01:36:42.069|56=GSFIX|11=151225093642-16|15=CNY|21=1|38=4000|40=1|54=1|55=002360|60=20151225-01:36:42|207=XSHE|10=232|8=FIX.4.2|9=151|35=D|34=19|49=1100DJLHDC1H8|52=20151225-01:36:42.190|56=GSFIX|11=151225093642-17|15=CNY|21=1|38=2000|40=1|54=1|55=002382|60=20151225-01:36:42|207=XSHE|10=231|8=FIX.4.2|9=151|35=D|34=20|49=1100DJLHDC1H8|52=20151225-01:36:42.270|56=GSFIX|11=151225093642-18|15=CNY|21=1|38=5000|40=1|54=1|55=002397|60=20151225-01:36:42|207=XSHE|10=232|8=FIX.4.2|9=151|35=D|34=21|49=1100DJLHDC1H8|52=20151225-01:36:42.370|56=GSFIX|11=151225093642-19|15=CNY|21=1|38=4500|40=1|54=1|55=002455|60=20151225-01:36:42|207=XSHE|10=234|8=FIX.4.2|9=151|35=D|34=22|49=1100DJLHDC1H8|52=20151225-01:36:42.470|56=GSFIX|11=151225093642-20|15=CNY|21=1|38=3500|40=1|54=1|55=002468|60=20151225-01:36:42|207=XSHE|10=231|8=FIX.4.2|9=151|35=D|34=23|49=1100DJLHDC1H8|52=20151225-01:36:42.576|56=GSFIX|11=151225093642-21|15=CNY|21=1|38=4500|40=1|54=1|55=002567|60=20151225-01:36:42|207=XSHE|10=241|8=FIX.4.2|9=151|35=D|34=24|49=1100DJLHDC1H8|52=20151225-01:36:42.689|56=GSFIX|11=151225093642-22|15=CNY|21=1|38=3000|40=1|54=1|55=002602|60=20151225-01:36:42|207=XSHE|10=232|8=FIX.4.2|9=151|35=D|34=25|49=1100DJLHDC1H8|52=20151225-01:36:42.788|56=GSFIX|11=151225093642-23|15=CNY|21=1|38=3000|40=1|54=1|55=002655|60=20151225-01:36:42|207=XSHE|10=242|8=FIX.4.2|9=151|35=D|34=26|49=1100DJLHDC1H8|52=20151225-01:36:42.888|56=GSFIX|11=151225093642-24|15=CNY|21=1|38=2500|40=1|54=1|55=002691|60=20151225-01:36:42|207=XSHE|10=249|8=FIX.4.2|9=151|35=D|34=27|49=1100DJLHDC1H8|52=20151225-01:36:43.005|56=GSFIX|11=151225093643-25|15=CNY|21=1|38=2500|40=1|54=1|55=002696|60=20151225-01:36:43|207=XSHE|10=240|8=FIX.4.2|9=151|35=D|34=28|49=1100DJLHDC1H8|52=20151225-01:36:43.120|56=GSFIX|11=151225093643-26|15=CNY|21=1|38=4000|40=1|54=1|55=300061|60=20151225-01:36:43|207=XSHE|10=224|8=FIX.4.2|9=151|35=D|34=29|49=1100DJLHDC1H8|52=20151225-01:36:43.221|56=GSFIX|11=151225093643-27|15=CNY|21=1|38=1500|40=1|54=1|55=300062|60=20151225-01:36:43|207=XSHE|10=231|8=FIX.4.2|9=151|35=D|34=30|49=1100DJLHDC1H8|52=20151225-01:36:43.322|56=GSFIX|11=151225093643-28|15=CNY|21=1|38=5500|40=1|54=1|55=300132|60=20151225-01:36:43|207=XSHE|10=228|8=FIX.4.2|9=151|35=D|34=31|49=1100DJLHDC1H8|52=20151225-01:36:43.420|56=GSFIX|11=151225093643-29|15=CNY|21=1|38=5500|40=1|54=1|55=300169|60=20151225-01:36:43|207=XSHE|10=239|8=FIX.4.2|9=151|35=D|34=32|49=1100DJLHDC1H8|52=20151225-01:36:43.540|56=GSFIX|11=151225093643-30|15=CNY|21=1|38=2500|40=1|54=1|55=300262|60=20151225-01:36:43|207=XSHE|10=226|8=FIX.4.2|9=151|35=D|34=33|49=1100DJLHDC1H8|52=20151225-01:36:43.625|56=GSFIX|11=151225093643-31|15=CNY|21=1|38=2500|40=1|54=1|55=300281|60=20151225-01:36:43|207=XSHE|10=233|8=FIX.4.2|9=151|35=D|34=34|49=1100DJLHDC1H8|52=20151225-01:36:43.717|56=GSFIX|11=151225093643-32|15=CNY|21=1|38=4000|40=1|54=1|55=300344|60=20151225-01:36:43|207=XSHE|10=234|8=FIX.4.2|9=152|35=D|34=35|49=1100DJLHDC1H8|52=20151225-01:36:43.818|56=GSFIX|11=151225093643-33|15=CNY|21=1|38=10000|40=1|54=1|55=600069|60=20151225-01:36:43|207=XSHG|10=037|8=FIX.4.2|9=151|35=D|34=36|49=1100DJLHDC1H8|52=20151225-01:36:43.917|56=GSFIX|11=151225093643-34|15=CNY|21=1|38=2500|40=1|54=1|55=600071|60=20151225-01:36:43|207=XSHG|10=245|8=FIX.4.2|9=151|35=D|34=37|49=1100DJLHDC1H8|52=20151225-01:36:44.020|56=GSFIX|11=151225093644-35|15=CNY|21=1|38=4000|40=1|54=1|55=600091|60=20151225-01:36:44|207=XSHG|10=234|8=FIX.4.2|9=151|35=D|34=38|49=1100DJLHDC1H8|52=20151225-01:36:44.120|56=GSFIX|11=151225093644-36|15=CNY|21=1|38=6500|40=1|54=1|55=600145|60=20151225-01:36:44|207=XSHG|10=244|8=FIX.4.2|9=151|35=D|34=39|49=1100DJLHDC1H8|52=20151225-01:36:44.228|56=GSFIX|11=151225093644-37|15=CNY|21=1|38=3500|40=1|54=1|55=600156|60=20151225-01:36:44|207=XSHG|10=254|8=FIX.4.2|9=151|35=D|34=40|49=1100DJLHDC1H8|52=20151225-01:36:44.322|56=GSFIX|11=151225093644-38|15=CNY|21=1|38=6500|40=1|54=1|55=600163|60=20151225-01:36:44|207=XSHG|10=243|8=FIX.4.2|9=151|35=D|34=41|49=1100DJLHDC1H8|52=20151225-01:36:44.417|56=GSFIX|11=151225093644-39|15=CNY|21=1|38=2000|40=1|54=1|55=600265|60=20151225-01:36:44|207=XSHG|10=244|8=FIX.4.2|9=151|35=D|34=42|49=1100DJLHDC1H8|52=20151225-01:36:44.522|56=GSFIX|11=151225093644-40|15=CNY|21=1|38=4000|40=1|54=1|55=600301|60=20151225-01:36:44|207=XSHG|10=227|8=FIX.4.2|9=151|35=D|34=43|49=1100DJLHDC1H8|52=20151225-01:36:44.625|56=GSFIX|11=151225093644-41|15=CNY|21=1|38=2500|40=1|54=1|55=600379|60=20151225-01:36:44|207=XSHG|10=251|8=FIX.4.2|9=152|35=D|34=44|49=1100DJLHDC1H8|52=20151225-01:36:44.721|56=GSFIX|11=151225093644-42|15=CNY|21=1|38=11500|40=1|54=1|55=600408|60=20151225-01:36:44|207=XSHG|10=036|8=FIX.4.2|9=151|35=D|34=45|49=1100DJLHDC1H8|52=20151225-01:36:44.818|56=GSFIX|11=151225093644-43|15=CNY|21=1|38=2500|40=1|54=1|55=600444|60=20151225-01:36:44|207=XSHG|10=252|8=FIX.4.2|9=151|35=D|34=46|49=1100DJLHDC1H8|52=20151225-01:36:44.919|56=GSFIX|11=151225093644-44|15=CNY|21=1|38=4000|40=1|54=1|55=600538|60=20151225-01:36:44|207=XSHG|10=001|8=FIX.4.2|9=151|35=D|34=47|49=1100DJLHDC1H8|52=20151225-01:36:45.018|56=GSFIX|11=151225093645-45|15=CNY|21=1|38=4000|40=1|54=1|55=600539|60=20151225-01:36:45|207=XSHG|10=253|8=FIX.4.2|9=151|35=D|34=48|49=1100DJLHDC1H8|52=20151225-01:36:45.127|56=GSFIX|11=151225093645-46|15=CNY|21=1|38=5000|40=1|54=1|55=600608|60=20151225-01:36:45|207=XSHG|10=254|8=FIX.4.2|9=151|35=D|34=49|49=1100DJLHDC1H8|52=20151225-01:36:45.217|56=GSFIX|11=151225093645-47|15=CNY|21=1|38=6000|40=1|54=1|55=600644|60=20151225-01:36:45|207=XSHG|10=001|8=FIX.4.2|9=151|35=D|34=50|49=1100DJLHDC1H8|52=20151225-01:36:45.320|56=GSFIX|11=151225093645-48|15=CNY|21=1|38=2000|40=1|54=2|55=000669|60=20151225-01:36:45|207=XSHE|10=241|8=FIX.4.2|9=151|35=D|34=51|49=1100DJLHDC1H8|52=20151225-01:36:53.960|56=GSFIX|11=151225093653-49|15=CNY|21=1|38=3000|40=1|54=2|55=000785|60=20151225-01:36:53|207=XSHE|10=250|8=FIX.4.2|9=151|35=D|34=52|49=1100DJLHDC1H8|52=20151225-01:36:54.049|56=GSFIX|11=151225093654-50|15=CNY|21=1|38=2500|40=1|54=2|55=000799|60=20151225-01:36:54|207=XSHE|10=253|8=FIX.4.2|9=151|35=D|34=53|49=1100DJLHDC1H8|52=20151225-01:36:54.145|56=GSFIX|11=151225093654-51|15=CNY|21=1|38=2500|40=1|54=2|55=002394|60=20151225-01:36:54|207=XSHE|10=245|8=FIX.4.2|9=151|35=D|34=54|49=1100DJLHDC1H8|52=20151225-01:36:54.250|56=GSFIX|11=151225093654-52|15=CNY|21=1|38=5500|40=1|54=2|55=002545|60=20151225-01:36:54|207=XSHE|10=245|8=FIX.4.2|9=151|35=D|34=55|49=1100DJLHDC1H8|52=20151225-01:36:54.346|56=GSFIX|11=151225093654-53|15=CNY|21=1|38=3000|40=1|54=2|55=300020|60=20151225-01:36:54|207=XSHE|10=235|8=FIX.4.2|9=151|35=D|34=56|49=1100DJLHDC1H8|52=20151225-01:36:54.468|56=GSFIX|11=151225093654-54|15=CNY|21=1|38=1500|40=1|54=2|55=600600|60=20151225-01:36:54|207=XSHG|10=254|8=FIX.4.2|9=62|35=0|34=57|49=1100DJLHDC1H8|52=20151225-01:37:54.614|56=GSFIX|10=171|8=FIX.4.2|9=62|35=0|34=58|49=1100DJLHDC1H8|52=20151225-01:38:54.737|56=GSFIX|10=179|8=FIX.4.2|9=62|35=5|34=59|49=1100DJLHDC1H8|52=20151225-01:39:14.185|56=GSFIX|10=179|8=FIX.4.2|9=62|35=5|34=60|49=1100DJLHDC1H8|52=20151225-01:39:14.250|56=GSFIX|10=164|