8=FIX.4.2|9=116|35=A|34=1|49=FIXTest116|52=20151225-07:28:35.179|56=SERVER|96=T:110000000572,110050000572:135790:|98=0|108=60|141=Y|10=023|8=FIX.4.2|9=59|35=0|34=2|49=FIXTest116|52=20151225-07:29:35.338|56=SERVER|10=217|8=FIX.4.2|9=59|35=5|34=3|49=FIXTest116|52=20151225-07:29:35.560|56=SERVER|10=220|8=FIX.4.2|9=59|35=5|34=4|49=FIXTest116|52=20151225-07:29:35.614|56=SERVER|10=221|