8=FIX.4.2|9=116|35=A|34=1|49=FIXTest116|52=20151225-01:02:49.848|56=SERVER|96=T:110000000572,110050000572:135790:|98=0|108=60|141=Y|10=017|8=FIX.4.2|9=59|35=5|34=2|49=FIXTest116|52=20151225-01:03:00.294|56=SERVER|10=201|8=FIX.4.2|9=59|35=5|34=3|49=FIXTest116|52=20151225-01:03:00.344|56=SERVER|10=198|