8=FIX.4.2|9=128|35=A|34=1|49=1100GXQHDJDL8|52=20151204-01:46:39.249|56=GSFIX|96=T:110099100054,110099160054:46d5a479427d55eb:|98=2|108=60|141=Y|10=014|
8=FIX.4.2|9=79|35=A|34=1|49=GSFIX|52=20151204-01:45:17.386|56=1100GXQHDJDL8|98=0|108=60|141=Y|10=007|
8=FIX.4.2|9=128|35=A|34=1|49=1100GXQHDJDL8|52=20151204-01:55:52.386|56=GSFIX|96=T:110099100054,110099160054:46d5a479427d55eb:|98=2|108=60|141=Y|10=011|
8=FIX.4.2|9=79|35=A|34=1|49=GSFIX|52=20151204-01:54:30.532|56=1100GXQHDJDL8|98=0|108=60|141=Y|10=251|
8=FIX.4.2|9=128|35=A|34=1|49=1100GXQHDJDL8|52=20151204-01:58:28.721|56=GSFIX|96=T:110099100054,110099160054:46d5a479427d55eb:|98=2|108=60|141=Y|10=010|
8=FIX.4.2|9=79|35=A|34=1|49=GSFIX|52=20151204-01:57:07.000|56=1100GXQHDJDL8|98=0|108=60|141=Y|10=248|
8=FIX.4.2|9=128|35=A|34=1|49=1100GXQHDJDL8|52=20151204-01:58:47.795|56=GSFIX|96=T:110099100054,110099160054:46d5a479427d55eb:|98=2|108=60|141=Y|10=022|
8=FIX.4.2|9=79|35=A|34=1|49=GSFIX|52=20151204-01:57:25.950|56=1100GXQHDJDL8|98=0|108=60|141=Y|10=006|
8=FIX.4.2|9=128|35=A|34=1|49=1100GXQHDJDL8|52=20151204-01:59:17.086|56=GSFIX|96=T:110099100054,110099160054:46d5a479427d55eb:|98=2|108=60|141=Y|10=013|
8=FIX.4.2|9=79|35=A|34=1|49=GSFIX|52=20151204-01:57:55.247|56=1100GXQHDJDL8|98=0|108=60|141=Y|10=008|
8=FIX.4.2|9=128|35=A|34=1|49=1100GXQHDJDL8|52=20151204-02:04:05.013|56=GSFIX|96=T:110099100054,110099160054:46d5a479427d55eb:|98=2|108=60|141=Y|10=247|
8=FIX.4.2|9=79|35=A|34=1|49=GSFIX|52=20151204-02:02:43.174|56=1100GXQHDJDL8|98=0|108=60|141=Y|10=251|
8=FIX.4.2|9=128|35=A|34=1|49=1100GXQHDJDL8|52=20151204-02:06:06.622|56=GSFIX|96=T:110099100054,110099160054:46d5a479427d55eb:|98=2|108=60|141=Y|10=000|
8=FIX.4.2|9=79|35=A|34=1|49=GSFIX|52=20151204-02:04:44.860|56=1100GXQHDJDL8|98=0|108=60|141=Y|10=000|
