8=FIX.4.2|9=115|35=A|34=1|49=1100DJLHDC1H8|52=20151204-01:46:39.291|56=GSFIX|96=Z:110099100077:a4d75795b94c6e6a:|98=2|108=60|141=Y|10=130|
8=FIX.4.2|9=79|35=A|34=1|49=GSFIX|52=20151204-01:45:17.353|56=1100DJLHDC1H8|98=0|108=60|141=Y|10=205|
8=FIX.4.2|9=61|35=5|34=2|49=1100DJLHDC1H8|52=20151204-01:46:47.838|56=GSFIX|10=124|
8=FIX.4.2|9=61|35=5|34=2|49=GSFIX|52=20151204-01:45:25.783|56=1100DJLHDC1H8|10=118|
8=FIX.4.2|9=61|35=5|34=3|49=1100DJLHDC1H8|52=20151204-01:46:47.897|56=GSFIX|10=130|
8=FIX.4.2|9=115|35=A|34=1|49=1100DJLHDC1H8|52=20151204-01:55:52.422|56=GSFIX|96=Z:110099100077:a4d75795b94c6e6a:|98=2|108=60|141=Y|10=121|
8=FIX.4.2|9=79|35=A|34=1|49=GSFIX|52=20151204-01:54:30.502|56=1100DJLHDC1H8|98=0|108=60|141=Y|10=196|
8=FIX.4.2|9=111|35=UAN|34=2|49=1100DJLHDC1H8|52=20151204-01:55:59.338|56=GSFIX|1=110099100077|581=300|710=151204095559-0|724=0|10=066|
8=FIX.4.2|9=371|35=UAP|34=2|49=GSFIX|52=20151204-01:54:37.325|56=1100DJLHDC1H8|1=B888481597|15=CNY|55=511990|207=XSHG|702=7|703=SB|704=100|703=SAV|704=100|703=SQ|704=100|703=LB|704=100|703=SBQ|704=0|703=SS|705=0|703=SF|705=0|710=151204095559-0|721=v2.0.0_516789771|724=0|727=1|728=0|753=5|707=BC|708=9999.30|707=SMV|708=10000.50|707=IC|708=1.20|707=PC|708=9999.30|707=BPL|708=1.20|912=Y|10=148|
8=FIX.4.2|9=61|35=5|34=3|49=1100DJLHDC1H8|52=20151204-01:56:10.176|56=GSFIX|10=111|
8=FIX.4.2|9=61|35=5|34=3|49=GSFIX|52=20151204-01:54:48.136|56=1100DJLHDC1H8|10=116|
8=FIX.4.2|9=61|35=5|34=4|49=1100DJLHDC1H8|52=20151204-01:56:10.232|56=GSFIX|10=105|
8=FIX.4.2|9=115|35=A|34=1|49=1100DJLHDC1H8|52=20151204-01:58:28.759|56=GSFIX|96=Z:110099100077:a4d75795b94c6e6a:|98=2|108=60|141=Y|10=140|
8=FIX.4.2|9=79|35=A|34=1|49=GSFIX|52=20151204-01:57:06.934|56=1100DJLHDC1H8|98=0|108=60|141=Y|10=211|
8=FIX.4.2|9=111|35=UAN|34=2|49=1100DJLHDC1H8|52=20151204-01:58:32.876|56=GSFIX|1=110099100077|581=300|710=151204095832-0|724=0|10=061|
8=FIX.4.2|9=371|35=UAP|34=2|49=GSFIX|52=20151204-01:57:10.865|56=1100DJLHDC1H8|1=B888481597|15=CNY|55=511990|207=XSHG|702=7|703=SB|704=100|703=SAV|704=100|703=SQ|704=100|703=LB|704=100|703=SBQ|704=0|703=SS|705=0|703=SF|705=0|710=151204095832-0|721=v2.0.0_516790009|724=0|727=1|728=0|753=5|707=BC|708=9999.30|707=SMV|708=10000.50|707=IC|708=1.20|707=PC|708=9999.30|707=BPL|708=1.20|912=Y|10=131|
8=FIX.4.2|9=115|35=A|34=1|49=1100DJLHDC1H8|52=20151204-01:58:47.836|56=GSFIX|96=Z:110099100077:a4d75795b94c6e6a:|98=2|108=60|141=Y|10=137|
8=FIX.4.2|9=79|35=A|34=1|49=GSFIX|52=20151204-01:57:25.918|56=1100DJLHDC1H8|98=0|108=60|141=Y|10=214|
8=FIX.4.2|9=111|35=UAN|34=2|49=1100DJLHDC1H8|52=20151204-01:58:49.044|56=GSFIX|1=110099100077|581=300|710=151204095849-0|724=0|10=064|
8=FIX.4.2|9=371|35=UAP|34=2|49=GSFIX|52=20151204-01:57:27.031|56=1100DJLHDC1H8|1=B888481597|15=CNY|55=511990|207=XSHG|702=7|703=SB|704=100|703=SAV|704=100|703=SQ|704=100|703=LB|704=100|703=SBQ|704=0|703=SS|705=0|703=SF|705=0|710=151204095849-0|721=v2.0.0_516790019|724=0|727=1|728=0|753=5|707=BC|708=9999.30|707=SMV|708=10000.50|707=IC|708=1.20|707=PC|708=9999.30|707=BPL|708=1.20|912=Y|10=133|
8=FIX.4.2|9=115|35=A|34=1|49=1100DJLHDC1H8|52=20151204-01:59:17.127|56=GSFIX|96=Z:110099100077:a4d75795b94c6e6a:|98=2|108=60|141=Y|10=128|
8=FIX.4.2|9=79|35=A|34=1|49=GSFIX|52=20151204-01:57:55.213|56=1100DJLHDC1H8|98=0|108=60|141=Y|10=205|
8=FIX.4.2|9=111|35=UAN|34=2|49=1100DJLHDC1H8|52=20151204-01:59:18.865|56=GSFIX|1=110099100077|581=300|710=151204095918-0|724=0|10=069|
8=FIX.4.2|9=371|35=UAP|34=2|49=GSFIX|52=20151204-01:57:56.857|56=1100DJLHDC1H8|1=B888481597|15=CNY|55=511990|207=XSHG|702=7|703=SB|704=100|703=SAV|704=100|703=SQ|704=100|703=LB|704=100|703=SBQ|704=0|703=SS|705=0|703=SF|705=0|710=151204095918-0|721=v2.0.0_516790042|724=0|727=1|728=0|753=5|707=BC|708=9999.30|707=SMV|708=10000.50|707=IC|708=1.20|707=PC|708=9999.30|707=BPL|708=1.20|912=Y|10=144|
8=FIX.4.2|9=115|35=A|34=1|49=1100DJLHDC1H8|52=20151204-02:04:05.053|56=GSFIX|96=Z:110099100077:a4d75795b94c6e6a:|98=2|108=60|141=Y|10=114|
8=FIX.4.2|9=79|35=A|34=1|49=GSFIX|52=20151204-02:02:43.142|56=1100DJLHDC1H8|98=0|108=60|141=Y|10=194|
8=FIX.4.2|9=111|35=UAN|34=2|49=1100DJLHDC1H8|52=20151204-02:04:06.755|56=GSFIX|1=110099100077|581=300|710=151204100406-0|724=0|10=034|
8=FIX.4.2|9=371|35=UAP|34=2|49=GSFIX|52=20151204-02:02:44.749|56=1100DJLHDC1H8|1=B888481597|15=CNY|55=511990|207=XSHG|702=7|703=SB|704=100|703=SAV|704=100|703=SQ|704=100|703=LB|704=100|703=SBQ|704=0|703=SS|705=0|703=SF|705=0|710=151204100406-0|721=v2.0.0_516790309|724=0|727=1|728=0|753=5|707=BC|708=9999.30|707=SMV|708=10000.50|707=IC|708=1.20|707=PC|708=9999.30|707=BPL|708=1.20|912=Y|10=117|
8=FIX.4.2|9=115|35=A|34=1|49=1100DJLHDC1H8|52=20151204-02:06:06.590|56=GSFIX|96=Z:110099100077:a4d75795b94c6e6a:|98=2|108=60|141=Y|10=123|
8=FIX.4.2|9=79|35=A|34=1|49=GSFIX|52=20151204-02:04:44.795|56=1100DJLHDC1H8|98=0|108=60|141=Y|10=211|
8=FIX.4.2|9=111|35=UAN|34=2|49=1100DJLHDC1H8|52=20151204-02:06:11.947|56=GSFIX|1=110099100077|581=300|710=151204100611-0|724=0|10=033|
8=FIX.4.2|9=371|35=UAP|34=2|49=GSFIX|52=20151204-02:04:49.944|56=1100DJLHDC1H8|1=B888481597|15=CNY|55=511990|207=XSHG|702=7|703=SB|704=100|703=SAV|704=100|703=SQ|704=100|703=LB|704=100|703=SBQ|704=0|703=SS|705=0|703=SF|705=0|710=151204100611-0|721=v2.0.0_516790412|724=0|727=1|728=0|753=5|707=BC|708=9999.30|707=SMV|708=10000.50|707=IC|708=1.20|707=PC|708=9999.30|707=BPL|708=1.20|912=Y|10=114|
8=FIX.4.2|9=61|35=5|34=3|49=1100DJLHDC1H8|52=20151204-02:06:17.975|56=GSFIX|10=121|
8=FIX.4.2|9=61|35=5|34=3|49=GSFIX|52=20151204-02:04:55.951|56=1100DJLHDC1H8|10=115|
8=FIX.4.2|9=61|35=5|34=4|49=1100DJLHDC1H8|52=20151204-02:06:18.054|56=GSFIX|10=111|
