8=FIX.4.2|9=128|35=A|34=1|49=1100GXQHDJDL8|52=20151204-02:06:06.622|56=GSFIX|96=T:110099100054,110099160054:46d5a479427d55eb:|98=2|108=60|141=Y|10=000|