8=FIX.4.2|9=115|35=A|34=1|49=1100DJLHDC1H8|52=20151204-02:06:06.590|56=GSFIX|96=Z:110099100077:a4d75795b94c6e6a:|98=2|108=60|141=Y|10=123|8=FIX.4.2|9=111|35=UAN|34=2|49=1100DJLHDC1H8|52=20151204-02:06:11.947|56=GSFIX|1=110099100077|581=300|710=151204100611-0|724=0|10=033|8=FIX.4.2|9=61|35=5|34=3|49=1100DJLHDC1H8|52=20151204-02:06:17.975|56=GSFIX|10=121|8=FIX.4.2|9=61|35=5|34=4|49=1100DJLHDC1H8|52=20151204-02:06:18.054|56=GSFIX|10=111|