8=FIX.4.2|9=115|35=A|34=1|49=FIXTest22|52=20151207-05:17:05.749|56=SERVER|96=T:110000000572,110050000572:135790:|98=0|108=60|141=Y|10=222|8=FIX.4.2|9=58|35=5|34=2|49=FIXTest22|52=20151207-05:17:12.044|56=SERVER|10=153|8=FIX.4.2|9=58|35=5|34=3|49=FIXTest22|52=20151207-05:17:12.139|56=SERVER|10=159|